:020000040800F2
:1000000000C000209D3C0008313500083335000851
:100010003535000837350008393500080000000084
:100020000000000000000000000000003B35000858
:100030003D350008000000003F350008413500084C
:10004000E53C0008E53C0008E53C0008E53C00080C
:10005000E53C0008E53C0008E53C0008E53C0008FC
:10006000E53C000845350008E53C0008E53C000893
:10007000E53C0008E53C0008E53C0008E53C0008DC
:10008000E53C0008E53C0008E53C0008E53C0008CC
:100090004D350008E53C0008E53C000859350008EE
:1000A000E53C0008E53C0008E53C0008E53C0008AC
:1000B000E53C0008E53C0008E53C0008E53C00089C
:1000C000E53C0008E53C0008E53C0008E53C00088C
:1000D000E53C0008613500086D350008E53C000886
:1000E000E53C0008E53C0008E53C0008E53C00086C
:1000F000E53C0008E53C0008E53C0008E53C00085C
:10010000E53C0008E53C0008E53C0008E53C00084B
:10011000E53C0008E53C0008793500088535000815
:10012000E53C0008E53C0008E53C0008E53C00082B
:1001300000000000000000000000000000000000BF
:1001400000000000000000000000000000000000AF
:10015000000000000000000000000000000000009F
:10016000000000000000000000000000000000008F
:10017000000000000000000000000000000000007F
:10018000000000000000000000000000000000006F
:10019000000000000000000000000000000000005F
:1001A000000000000000000000000000000000004F
:1001B000000000000000000000000000000000003F
:1001C000000000000000000000000000000000002F
:1001D000000000000000000000000000000000001F
:0401E0005FF8E0F1F3
:1001E40010B5054C237833B9044B13B10448AFF36D
:1001F40000800123237010BD640300200000000070
:10020400F051000808B5034B1BB103490348AFF391
:10021400008008BD0000000068030020F0510008C1
:1002240010F8012B11F8013B012A28BF9A42F7D09C
:10023400D01A7047034613F8012B002AFBD1181A71
:100244000138704738B50E4B054618784FF47A7369
:10025400B3FBF0F30B4A1068B0FBF3F000F0A0F826
:10026400044658B90F2D09D8024629464FF0FF30ED
:1002740000F054F8044B20461D6038BD012038BD01
:10028400000000203001002004000020074A08B5C7
:100294001368032043F01003136000F02DF80020CE
:1002A400FFF7D0FF03F020F9002008BD0020024032
:1002B400034A044B11681B780B441360704700BF5A
:1002C400A006002000000020014B1868704700BF02
:1002D400A006002038B50446FFF7F6FF0546631C68
:1002E4001EBF044B1B78E418FFF7EEFF401B84424B
:1002F400FAD838BD00000020074A0002D36800F491
:10030400E06023F4E0631B041B0C43F0BF6343F47D
:1003140000330343D360704700ED00E0174B30B562
:10032400DC68C4F30224C4F10703251D042B28BF91
:100334000423062D4FF0010598BF002405FA03F3AA
:1003440003F1FF3388BF033C1940A14005FA04F4CC
:10035400013C2240002842EA01024FEA0212A9BFEE
:1003640000F16040064BD2B200F56140BBBF00F023
:100374000F00D2B280F800231A5430BD00ED00E023
:1003840014ED00E0002808DB0123420900F01F00FF
:1003940003FA00F0014B43F82200704700E100E04B
:1003A4000138B0F1807F0AD2F021064B064A58602A
:1003B40082F823100020072298601A6070470120F9
:1003C400704700BF10E000E000ED00E090F821303D
:1003D40010B5022B03D004238363012010BD0368EE
:1003E4001A6822F00E021A601A6822F001021A60DA
:1003F400294A934224D902F56272934219D01432E5
:10040400934218D01432934217D0143293420CBF43
:100414004FF480534FF48033204A53600123002467
:1004240080F82130436B80F820409BB398472046E6
:1004340010BD0123F0E71023EEE74FF48073EBE7E0
:1004440017498B4216D014318B4215D014318B428C
:1004540014D014318B4214D014318B4214D0143183
:100464008B4214D0934214BF4FF480334FF0807307
:100474000C4AD2E70123FBE71023F9E74FF480731A
:10048400F6E74FF48053F3E74FF48033F0E74FF48B
:100494008013EDE7184610BD8000024000040240BE
:1004A40008000240000002402DE9F74F00242646D0
:1004B4006C4F6D4BDFF8B8E1DFF8B8C10A6832FA67
:1004C40006F502D103B0BDE8F08F4FF0010808FA39
:1004D40006F802EA0802904540F084804D68122D27
:1004E40000F0B18000F28780022D00F0A9807BD853
:1004F400002D00F08C80012D00F0A0804FF00F093A
:10050400FF2A93BF824606F18045083DD0F800B02B
:1005140092BFB500D0F804B0AD0009FA05F82BEA93
:10052400080804FA05F588BF00F1040A48EA05053D
:10053400CAF80050D1F804A01AF0805F52D0BD6907
:1005440026F0030845F00105BD61BD6908F1804846
:1005540005F00105019508F5803806F0030B019DAF
:100564004FEA8B0BD8F8085009FA0BF925EA090968
:100574003E4DA8426CD005F58065A8426AD005F5C9
:100584008065A84268D005F58065A84266D005F567
:100594008065A84264D070450CBF0525062505FA80
:1005A4000BF545EA0905C8F808501D681AF4803FA0
:1005B40014BF154395431D605D681AF4003F14BFD2
:1005C400154395435D609D681AF4801F14BF15435D
:1005D40095439D60DD681AF4001F14BF2A4325EA81
:1005E4000202DA60013669E7032D25D0112D85D189
:1005F400CC68043482E7654509D012D8DFF87890D6
:100604004D4504D009F580394D457FF477AF8C68AA
:10061400E4B1012C0CBFC0F81080C0F81480082489
:100624006CE7DFF858904D45F1D009F580394D4518
:10063400EDD0A9F58019E7E700245FE7CC685DE712
:10064400CC6808345AE7CC680C3457E7042455E7DF
:100654000025A4E70125A2E70225A0E703259EE7DC
:1006640004259CE7001002400004014000080140FA
:10067400001C014000002110000011100000311086
:100684008368194214BF0120002070470AB1016138
:1006940070470904FBE7C3680B4214BF4161016161
:1006A4007047000008B5044B5969014202D05861F3
:1006B40002F00AFF08BD00BF00040140F0B5044683
:1006C40087B010B390F8293203F0FF021BB980F809
:1006D400282203F03FF9254603236E4655F8100BF4
:1006E40084F8293201F04EFA0FCD0FC62B68254647
:1006F4003360271D97E80E0055F8100B01F032FA0D
:10070400064620B1022384F82932012548E0014637
:10071400206801F041FA30464FF0010E6168C3B21F
:10072400994200F1010017D800221046D3B2994231
:1007340002F101021DD86E460FCD0FC62B6833603F
:1007440097E80E00206801F029FA0123054600B35A
:10075400022284F82922D8E704EB431282F829E024
:1007640082F82830D38682F82B609663D6631664A9
:10077400D5E704EB431686F828310A335B0186F883
:10078400290186F82B01C6F83801C6F83C01E0506F
:10079400CCE784F8240084F82932206801F0E4FCD2
:1007A400284607B0F0BD90F8283210B5012B044656
:1007B4000ED0012180F8281203F0F5F9206801F029
:1007C400D1FC206801F0D5F9002084F8280210BD7E
:1007D400022010BD90F8282210B5012A04460BD03F
:1007E400012280F8282284F82410006801F0B4FC67
:1007F400002084F8280210BD022010BD70B511F04D
:10080400800F044601F007004FEA40151FD001266F
:1008140005F128012544214485F829600A614A78B4
:10082400C0B20870CB7002B1C881022B04BF002390
:100834000B7194F82832012B11D00123206884F81D
:10084400283201F0C7F9002084F8280270BD002680
:1008540005F594712544214485F82961DEE70220D9
:1008640070BD01F0070311F0800F10B54FEA431279
:10087400044615D002F1280101440244012082F803
:1008840029000B7094F82832012B11D00123206821
:1008940084F8283201F016FB002084F8280210BDE9
:1008A40002F5947101440244002082F82901E8E72A
:1008B400022010BD70B5002601F007014D01441956
:1008C40084F8281105F594710144C4F83C21C4F856
:1008D4004031C4F8446184F82961006801F05CFC8B
:1008E400304670BD01F0070100EB4111D1F844011D
:1008F400704701F0070170B54D01441923640026C7
:10090400012384F8281005F128010144E263666498
:1009140084F82930006801F03FFC304670BD0000C7
:100924002DE9F84F0446006801F020FC020400F1B0
:100934001082206801F01AFC43050FD52268204676
:10094400B2F8443023F480631B041B0CA2F8443037
:1009540003F037F800212046FFF73CFF206801F040
:1009640005FC470408D52268B2F8443023F48043D8
:100974001B041B0CA2F84430206801F0F7FB86042A
:1009840008D52268B2F8443023F400531B041B0C2E
:10099400A2F84430206801F0E9FBC5041CD52268A4
:1009A4002046B2F8403023F004031B041B0CA2F8C9
:1009B4004030B2F8403023F008031B041B0CA2F8AB
:1009C400403003F021F82268B2F8443023F4805315
:1009D4001B041B0CA2F84430206801F0C7FB00057F
:1009E40026D52068B0F840309BB243F00803A0F845
:1009F4004030B0F8443023F400631B041B0CA0F80F
:100A04004430B0F840309BB243F00403A0F84030C7
:100A140001F0ACFBC10408D52268B2F8443023F4D9
:100A240080531B041B0CA2F84430204602F0DCFF68
:100A3400206801F09BFB82050BD522682046B2F8A2
:100A4400443023F400731B041B0CA2F8443002F05E
:100A5400B4FF206801F08AFBC30508D52268B2F808
:100A6400443023F480731B041B0CA2F84430BDE80B
:100A7400F88FB0F8441089B211F00F0640F0B78037
:100A8400038811F010019BB22CD103EA090343F44B
:100A940000430380B0F8503094F828209BB203EB55
:100AA400C20300EB4300B0F80434E26BC3F3090360
:100AB40063641344E363204602F078FF94F824301F
:100AC40053B1226C42B994F82430216843F0800376
:100AD400A1F84C3084F824202068B0F844301B047A
:100AE400C7D426E713F4006521D0B0F8503094F849
:100AF40028219BB203EBC20300EB4303B3F80C348D
:100B0400B4F82E21C3F30903C4F8443104F50C717D
:100B140001F02AFC22682046138823F070031B0589
:100B24001B0D43F08003138002F032FFD4E71F044F
:100B3400D2D5038823F070031B051B0D43F08003FB
:100B44000380B0F8503094F828219BB203EBC20321
:100B540000EB4303B3F80C34C3F30903C4F8443182
:100B64008BB1D4F83C1171B1B4F82E2101F0FCFB27
:100B7400D4F83C31D4F8442129461344C4F83C3118
:100B8400204602F00BFF2168D4F83851B1F85030F8
:100B940001F20C409BB2CDB9C25A22F4F8421204BD
:100BA400120CC252C25A92B242F40042C2520B8890
:100BB40023F4804323F070031B041B0C83F4405381
:100BC40043F4004343F080030B8085E73E2D06D8B1
:100BD4006A08EE0748BF0132920292B2E6E76A0958
:100BE400ED0608BF02F1FF324AEA8222F5E730F847
:100BF40026801FFA88F818F4004F3DD030F82630CC
:100C0400770123F070031B051B0D43F0800320F8CC
:100C14002630E11991F83431002B58D1B0F8503016
:100C240091F828219BB2063303EBC20300EB430384
:100C3400B3F80054C5F3090535B1B1F82E212B469C
:100C4400D1F83C1101F090FBE119D1F84431D1F80D
:100C54003C212B44C1F84431D1F840312A44C1F835
:100C64003C211BB1D1F83801854269D2274497F859
:100C74002811204602F092FE18F0800F3FF42CAFAA
:100C84002168204631F8262092B202EA090242F491
:100C9400004221F82620B1F8503004EB461696F8AD
:100CA40028209BB2023303EBC20301EB4303B3F8E6
:100CB4000024F36BC2F3090272641A44336CF263C6
:100CC40096F82810002B41D102F070FE04E791F849
:100CD400283130F82320DB0012F4804FB0F8502084
:100CE40092B21FD00232134400EB4303B3F8005412
:100CF400C5F3090535B12B46B1F83021D1F83C11C3
:100D040001F032FBE31993F82811226832F82130FC
:100D14009BB203EA0B0343F4004343F0C00322F8FD
:100D2400213091E70632134400EB4303B3F8005437
:100D3400C5F30905002DE5D02B46B1F83221DDE7D6
:100D440091F828112046FFF7B5FD95E7FFF7D1FD8F
:100D5400C2E6DFF80C90DFF80CA0DFF80CB0BBE6BD
:100D64000F8FFFFF0080FFFF8F8FFFFF38B54368B1
:100D740001F007059D42044628D80B061DD5012223
:100D84006B0103F128010344014483F82920012362
:100D94000D708B7094F828229A4219D084F8283266
:100DA400206801F06EF925B904F50C71206801F092
:100DB400E1F9002084F8280238BD00224B0103F534
:100DC40094710344014483F82921E0E7012038BDEC
:100DD400022038BD38B5436801F00F029A42044638
:100DE40026D801F0070311F0800F4FEA431217D001
:100DF40002F1280101440244012082F8290000255F
:100E04000B708D7094F82832012B13D001232068C5
:100E140084F8283201F055F984F82852284638BD60
:100E240002F5947101440244002082F82901E6E7A6
:100E3400012038BD022038BD11F0800F1BBF01F026
:100E4400070100EB411000EB4110283008BF00F50A
:100E540094701AB90273C380002070470122038181
:100E64001B0C02734381F7E72DE9F341054608B9EA
:100E740001203CE00368DB0710D42B689F075DD496
:100E84002B68190700F194802B685A0700F1BE8083
:100E9400E869002840F02C81002028E08F4C63682A
:100EA40003F00C03042B07D0636803F00C03082B36
:100EB40009D16368DE0306D523689C03DDD56B681E
:100EC400002BDAD1D4E76B68B3F5803F12D12368E5
:100ED40043F480332360FFF7F7F906462368980349
:100EE400CBD4FFF7F1F9801B6428F7D9032002B0B3
:100EF400BDE8F0819BB9236823F480332360236821
:100F040023F480232360FFF7DFF90646236899035F
:100F1400B3D5FFF7D9F9801B6428F7D9E6E7B3F511
:100F2400A02F236803D143F480232360CFE723F465
:100F340080332360236823F48023CBE7674C636802
:100F440013F00C0F07D0636803F00C03082B10D1C7
:100F54006368DA030DD423689B0702D52B69012B40
:100F640086D123686A6923F0F80343EAC203236045
:100F740086E72A695A4B6AB101221A60FFF7A4F97D
:100F8400064623689F07ECD4FFF79EF9801B0228CE
:100F9400F7D9ABE71A60FFF797F906462368980775
:100FA4007FF56EAFFFF790F9801B0228F6D99DE715
:100FB400AA694A4C4B4BDAB101221A60FFF784F953
:100FC4000646636A9B070DD54FF4FA52464B1B68DD
:100FD400B3FBF2F3019300BF019B5A1E0192002B55
:100FE400F9D151E7FFF770F9801B0228E9D97DE7B1
:100FF4001A60FFF769F90646636A9F077FF544AFF5
:10100400FFF762F9801B0228F6D96FE7334CE369D6
:10101400D80024D40127E36943F08053E361E369F2
:1010240003F080530093009B304E3368D90518D5E4
:10103400EB68012B26D1236A43F001032362FFF7F7
:1010440043F941F288368046236A9B073FD5002F37
:101054003FF41EAFE36923F08053E36118E70027F0
:10106400E2E7336843F480733360FFF72DF9804679
:101074003368DA05DCD4FFF727F9A0EB080064280D
:10108400F6D933E7ABB9236A41F2883823F0010378
:101094002362236A23F004032362FFF715F906464B
:1010A400236A9807D3D5FFF70FF9801B4045F7D97A
:1010B4001CE7052B236A03D143F004032362BAE738
:1010C40023F001032362236A23F00403B6E7FFF746
:1010D400FBF8A0EB0800B042B6D907E700100240C5
:1010E400000042428004424230010020007000406F
:1010F4002A4B5A681C4602F00C02082A3DD00023F1
:10110400274E022833602BD1FFF7DEF80746236809
:1011140099011FD42B6AB3F5803F05D16268A96891
:1011240022F400320A436260696A62680B4322F463
:1011340074121343636001233360FFF7C5F8054657
:1011440023689A013FF5A8AEFFF7BEF8401B0228BA
:10115400F6D9CBE6FFF7B8F8C01B0228D7D9C5E605
:10116400FFF7B2F8054623689B017FF595AEFFF7BC
:10117400ABF8401B0228F6D9B8E601283FF4B7AE15
:1011840058682B6A00F480329A427FF471AE6B6A1D
:1011940000F47010C01A18BF0120A8E60010024025
:1011A4006000424230B587B00D461022002102A8EB
:1011B40002F0C6FD02230393032305934FF48073C7
:1011C4000A4C0293A36902A943F00403A361A3692F
:1011D400074803F004030193019BFFF765F9616875
:1011E40021F0E0612943616007B030BD0010024086
:1011F4000008014030B5194B87B002AC03F110056B
:10120400224618685968083303C2AB421446F7D122
:1012140001238DF80430022311498DF805304B6801
:1012240003F00C02082A17D1C3F3834206A8024430
:10123400DB0312F8102C0CD54B680A48C3F3404367
:10124400504306AA134413F8143CB0FBF3F007B060
:1012540030BD05485043FAE70248F8E70852000851
:101264000010024000127A0000093D002DE9F0410F
:101274000D46044610B90120BDE8F081454A1368C3
:1012840003F007038B4229D321688E0731D4CA07A0
:1012940044D4404A136803F007039D4267D322688D
:1012A4003D4D12F0040F6ED1130706D56B68226909
:1012B40023F4605343EAC2036B60FFF79BFF6B6840
:1012C400364AC3F30313D35CD840354B1860354B0F
:1012D4001868FEF7B7FF0020BDE8F081136823F01B
:1012E40007030B431360136803F007039942C2D149
:1012F400CAE7294B11F0040F1EBF5A6842F4E0629A
:101304005A60080742BF5A6842F460525A605A68E9
:10131400A06822F0F00202435A60B8E762681E4EE9
:10132400012A33681BD113F4003FA4D0736841F23F
:10133400883823F0030313437360FEF7C5FF0746A1
:101344007368626803F00C03B3EB820FA1D0FEF75D
:10135400BBFFC01B4045F3D90320BDE8F081022A3E
:1013640002D113F0007FE0E713F0020FDDE713680A
:1013740023F007032B431360136803F007039D4214
:101384007FF479AF8BE76B68E16823F4E0630B4388
:101394006B6089E700200240001002406C53000893
:1013A4003001002004000020044B054A5B68C3F3AD
:1013B4000223D35C034A1068D840704700100240EF
:1013C4007C53000830010020044B054A5B68C3F3DA
:1013D400C223D35C034A1068D8407047001002400F
:1013E4007C5300083001002003682DE9F341D9073C
:1013F400054620D5354CE369DA0032D40127E36988
:1014040043F08053E361E36903F080530193019B4C
:101414002F4E3368DB0526D5236A13F4407336D187
:10142400236A6A6823F44073134323621FB1E36998
:1014340023F08053E3612868830706D5234AA9680B
:10144400536823F440430B43536010F010001BD047
:101454001E4A69695368002023F480030B435360D8
:1014640012E00027D4E7336843F480733360FEF757
:101474002BFF80463368D805CED4FEF725FFA0EBBA
:1014840008006428F6D9032002B0BDE8F0816A6838
:1014940002F440729342C3D001200E4A236A1060C2
:1014A400002023F4407110602162D907B8D5FEF7FB
:1014B4000BFF41F288380646236A9A07B0D4FEF738
:1014C40003FF801B4045F7D9DDE700BF0010024051
:1014D400007000404004424203680020DA6842F091
:1014E4000102DA609A6802F00702062A1EBF1A682F
:1014F40042F001021A6070477047704770477047A6
:10150400036810B51A69044691070ED5DA68920784
:101514000BD56FF002021A6101229B6902779B07C7
:1015240077D0FFF7EAFF0023237723681A6950076F
:1015340010D5DA6851070DD56FF004021A61022242
:101544009B69227713F4407F204668D0FFF7D5FFCC
:101554000023237723681A6912070FD5DA68100766
:101564000CD56FF008021A610422DB69227799070F
:1015740020465AD0FFF7C1FF0023237723681A6956
:10158400D20610D5DA68D0060DD56FF010021A61B4
:101594000822DB69227713F4407F20464BD0FFF703
:1015A400ACFF0023237723681A69D10708D5DA68CA
:1015B400D20705D56FF0010220461A6101F06CFFD5
:1015C40023681A69100608D5DA68110605D56FF084
:1015D400800220461A6100F0BAF823681A6952069C
:1015E40008D5DA68500605D56FF0400220461A6126
:1015F400FFF785FF23681A69910622D5DA689206F7
:101604001FD56FF020022046BDE810401A6100F09B
:101614009DB8FFF771FF2046FFF770FF83E7FFF7E0
:101624006BFF2046FFF76AFF92E7FFF765FF20464E
:10163400FFF764FFA0E7FFF75FFF2046FFF75EFFB9
:10164400AFE710BD244A0368904212D002F500624D
:1016540090420ED0B0F1804F0BD0A2F59832904258
:1016640007D002F58062904203D002F58062904276
:101674001DD14A6823F070031343174A904212D0D5
:1016840002F5006290420ED0B0F1804F0BD0A2F56B
:101694009832904207D002F58062904203D002F55E
:1016A4008062904203D1CA6823F4407313434A69A9
:1016B40023F08003134303608B68C3620B68836267
:1016C400054B984203D003F50063984201D10B699E
:1016D4000363012343617047002C014010B50446A5
:1016E400A0B190F83D3003F0FF021BB980F83C2014
:1016F40001F0EEFF0223206884F83D30211DFFF73E
:10170400A1FF0123002084F83D3010BD012010BD4D
:1017140090F83C3030B5012B4FF0020314D004682C
:1017240080F83D306268A3680D68496822F0700251
:1017340023F080030B432A436260A360012380F8F3
:101744003D30002380F83C30184630BD7047704768
:101754000368DA6822F49072DA605A6922F00102AE
:101764005A61202380F83A307047000038B50546A6
:101774000368C1681A69192422F440520A431A61A1
:1017840082680069D9680243686921F4B05121F084
:101794000C0102430A43DA605A69A96922F44072CF
:1017A4000A435A610D4A934214D1FFF70DFE604378
:1017B4006C686422A400B0FBF4F0B0FBF2F402FB0A
:1017C40014031B013233B3FBF2F3296803EB041354
:1017D4008B6038BDFFF7E8FDE9E700BF0038014042
:1017E400F8B504460E4617461D4621680B6836EACE
:1017F400030301D10020F8BD6B1CF7D095B9236811
:101804000320DA6822F4D072DA605A6922F0010205
:101814005A61202384F8393084F83A30002384F85C
:101824003830F8BDFEF750FDC01B8542DDD2E6E737
:1018340010B5044640B390F8393003F0FF021BB9E9
:1018440080F8382001F0AAFF2423226884F8393074
:10185400D368204623F40053D360FFF787FF23683F
:1018640000201A6922F490421A615A6922F02A026D
:101874005A61DA6842F40052DA602023E06384F8A3
:10188400393084F83A3010BD012010BD2DE9F04103
:101894001F4690F839300446202B0D4690464ED111
:1018A400002949D0002A47D090F83830012B46D07F
:1018B400012380F838300023C363212380F83930B2
:1018C400FEF702FD0646A4F82480A4F82680E38CE3
:1018D4009BB26BB93B46324640212046FFF780FF5E
:1018E400A8B9202384F8380084F83930BDE8F081A1
:1018F400E38C3246013B9BB2E384A3688021B3F5B9
:10190400805F20463B460ED1FFF76AFF10B10320EB
:10191400BDE8F0812B882268C3F308035360236970
:1019240043B90235D3E7FFF75BFF0028EFD1236803
:101934002A785A600135CAE70120BDE8F081022007
:10194400BDE8F08190F83A30202B20D1E9B1E2B122
:1019540090F83830012B1AD0C285828500232222C8
:10196400C36380F83A2002688162D16880F8383015
:1019740041F48071D1605169184641F0010151610F
:10198400D16841F02001D1607047012070470220E6
:101994007047704790F83A3010B5222B36D18368DF
:1019A4000169B3F5805F0268836A23D15268E9B99B
:1019B400C2F3080223F8022B8362C48D013CA4B253
:1019C400C4858CB90368DA6822F02002DA60DA6828
:1019D40022F48072DA605A6922F001025A612023EB
:1019E40080F83A3001F02CFD002010BDD2B223F86B
:1019F400012BE1E721B9591C526881621A70DCE7B6
:101A04005268591C816202F07F02F7E7022010BD80
:101A140070470000036870B51A6804461607D96851
:101A24005D6907D196065AD58D0658D5BDE8704034
:101A3400FFF7B0BF15F0010502D111F4907F4ED02D
:101A4400D30705D5CE0542BFE36B43F00103E3633F
:101A5400500704D51DB1E36B43F00203E36393071E
:101A640004D51DB1E36B43F00403E363160704D507
:101A74001DB1E36B43F00803E363E36B002B66D013
:101A8400950604D5880602D52046FFF783FF236810
:101A940020465D69E26B110702D415F040051AD0A7
:101AA400FFF756FE23685A69520610D55A69606BCF
:101AB40022F040025A6150B1254B4363FEF786FC85
:101AC400002844D0606BBDE87040436B1847204643
:101AD400FFF79EFF70BDFFF79BFFE56370BD160621
:101AE40027D50D0625D594F83920212A2FD1A268AF
:101AF400B2F5805F226A17D11188C1F308015960D9
:101B0400216979B902322262E28C013A92B2E2840A
:101B1400EAB9DA6822F08002DA60DA6842F0400258
:101B2400DA6070BD0132EEE7511C216212785A600E
:101B3400EAE750060BD54A0609D5DA68204622F0B2
:101B44004002DA60202384F83930FFF722FF70BDA9
:101B5400591B000808B50023406AC385C384FFF7F6
:101B640057FF08BD84B001A880E80E0004B000202F
:101B74007047B0F840309BB243F43F43A0F8403084
:101B840000207047B0F8403023F47C535B045B0CB6
:101B9400A0F84030002070470020704784B010B592
:101BA40003AC84E80E00BDE8104000220123A0F835
:101BB4004030A0F84020A0F84420A0F85020B0F80D
:101BC400403004B09BB243F43F43A0F84030104689
:101BD40070470000F0B50D78034630F82520C8782A
:101BE40022F4EC4222F070021204120C03284ED8A4
:101BF400DFE800F0024A044742F40072002048F291
:101C04008004224323F825200E78AB4D33F8262098
:101C1400344392B22A40224323F826200C7B0A78CC
:101C2400002C40F088804E78CC8896B3B3F850608E
:101C340003EB021224F00104B6B202F58062A4B2EE
:101C440094530C7833F82420560609D533F824200D
:101C540092B22A4042F4004242F0C00223F8242007
:101C6400CA780978012A33F82120944C92B202EA06
:101C7400040201D082F0200242F4004242F08002C9
:101C8400CBE042F4C062B9E742F48062B6E70120D7
:101C9400B5E7B3F8505003EB021224F00104ADB2DF
:101CA40002F58162A4B254530A78B3F850600D6906
:101CB40003EB0212B6B202F20C425DBB945B24F455
:101CC400F8442404240C9453945B6FEA44446FEA6C
:101CD4005444A4B294530C7833F8242055040DD5FD
:101CE40033F8242022F4E04222F070021204120C91
:101CF40042F4404242F0800223F82420097833F869
:101D0400212022F4804222F070021204120C82F488
:101D14004052B1E73E2D05D86C08ED0748BF0134A9
:101D2400A402D6E76F09EC06654C08BF07F1FF373C
:101D340044EA8724CDE733F82240A4B22C4044F48B
:101D4400014444F0800423F822400A780C89B3F853
:101D5400506003EB021224F00104B6B202F5806273
:101D6400A4B294530A784C89B3F8506003EB02127E
:101D740024F0010402F58162A4B2B6B294534A7805
:101D84000C78002A4CD133F82420520409D533F8B6
:101D9400242092B22A4042F4404242F0800223F8C6
:101DA40024200C7833F8242057060DD533F824204A
:101DB40022F4E04222F070021204120C42F40042B7
:101DC40042F0C00223F824200C7833F8242022F4B3
:101DD400E04222F070021204120C42F4004242F07B
:101DE400C00223F8242048F280040D7833F825201B
:101DF40022F4804222F070021204120C82F4405247
:101E0400224323F82520097833F8212022F4E042E4
:101E140022F040021204120C224323F82120F0BDC8
:101E240033F82420560409D533F8242092B22A40EA
:101E340042F4404242F0800223F824200C7833F824
:101E4400242052060DD533F8242022F4E04222F057
:101E540070021204120C42F4004242F0C00223F851
:101E640024200C78154D33F8242022F4E04222F08B
:101E740070021204120C42F4404242F0800223F831
:101E84002420CA780C78012A33F8242092B202EA7A
:101E9400050218BF82F0200242F4004242F08002A0
:101EA40023F82420097833F8212022F4804222F0F8
:101EB40070021204120CDFE68F8FFFFFBF8FFFFF4B
:101EC4000080FFFF10B50C7B4B780A78002C3DD1C5
:101ED40013B330F822305C060DD530F8223023F4E9
:101EE400E04323F070031B041B0C43F4004343F052
:101EF400C00320F822300A7830F8223023F4E0437B
:101F040023F040031B041B0C43F4004343F0800301
:101F140020F82230002010BD30F822305B040DD5AB
:101F240030F8223023F4E04323F070031B041B0C2D
:101F340043F4404343F0800320F822300A7830F819
:101F4400223023F4804323F07003DBE7002B4ED1CF
:101F540030F822305C040DD530F8223023F4E0430D
:101F640023F070031B041B0C43F4404343F0800331
:101F740020F822300A7830F822305B060DD530F88C
:101F8400223023F4E04323F070031B041B0C43F4BE
:101F9400004343F0C00320F822300A7830F822309E
:101FA40023F4E04323F070031B041B0C43F40043AD
:101FB40043F0C00320F8223048F280020C7830F855
:101FC400243023F4804323F070031B041B0C1343BD
:101FD40020F82430097830F8213023F4E04323F04A
:101FE40040031B041B0C134320F8213092E730F804
:101FF40022305C040DD530F8223023F4E04323F082
:1020040070031B041B0C43F4404343F0800320F88B
:1020140022300A7830F822305B060DD530F82230B1
:1020240023F4E04323F070031B041B0C43F400432C
:1020340043F0C00320F822300A7830F8223023F429
:10204400E04323F070031B041B0C43F4404343F0B0
:10205400800320F8223048F280020C7830F82430D3
:1020640023F4E04323F040031B041B0C134320F828
:102074002430097830F8213023F4804323F07003AE
:10208400AFE74B780A788BB130F8223023F4E04381
:1020940023F040031B041B0C83F0100343F40043A0
:1020A40043F0800320F822300020704730F82230BB
:1020B40023F4804323F070031B041B0C83F480532C
:1020C400ECE70B7B43BB4B780A783BB330F8223008
:1020D4005B060DD530F8223023F4E04323F070037F
:1020E4001B041B0C43F4004343F0C00320F82230CC
:1020F400CB78012B10D00A7830F8223023F4E04357
:1021040023F040031B041B0C83F0200343F400431F
:1021140043F0800320F822300020704730F822304A
:102124005B040DD530F8223023F4E04323F0700330
:102134001B041B0C43F4404343F0800320F822307B
:102144000A7830F8223023F4804323F070031B0410
:102154001B0C83F44053D9E711B98023A0F84C3009
:10216400002070470020704700207047B0F84400FA
:1021740080B270470020704700EB4202013302F541
:1021840080625B0802EB83039A4200D1704731F806
:10219400020B22F8040BF7E770B50D4649780446A4
:1021A4000129AA692B69287B66D19A429DBF002325
:1021B400AB611346D21A88BFAA619EB208BB3346EC
:1021C400EA8869692046FFF7D7FFB4F850302A78C7
:1021D40099B204F2044312010B44D6522A7834F81B
:1021E400223023F4E04323F040031B041B0C83F050
:1021F400300343F4004343F0800324F822300020EA
:1022040070BD2B78204634F823201B0112F0400FB8
:10221400B4F8502091B215BF04F20C4204F2044207
:102224005218521815BFD652D6526A892A89334693
:102234006969FFF7A1FF6B782A7873B934F8223003
:1022440023F4E04323F070031B041B0C43F400430A
:1022540043F0C00324F82230C0E7012BBED134F888
:10226400223023F4E04323F070031B041B0C43F4DB
:10227400404343F08003EDE79A4293BF0023D21A10
:10228400AA61AB6198BF13462A78B0B9B4F850007C
:10229400120181B204F20C400844002B44D1835A49
:1022A40023F4F8431B041B0C8352835A6FEA434301
:1022B4006FEA53439BB283523FE0A1B9B4F8500094
:1022C400120181B204F204400844E3B9815A21F4B2
:1022D400F8410904090C8152815A6FEA41416FEABD
:1022E400514189B2815269782A780029CED00129D6
:1022F40023D1B4F85010120188B204F20C41014405
:102304009BB28B5219E03E2B05D85908DE0748BF13
:1023140001318902E5E75E09D906124908BF06F1D1
:10232400FF3641EA8621DCE73E2B12D85908DE0746
:1023340048BF0131890289B281522A7834F82230A7
:1023440023F4804323F070031B041B0C83F44053D9
:102354004FE75909DB06034B08BF01F1FF3143EA9C
:102364008123A7E70080FFFF00EB4202F0B502F5EE
:1023740080625D08084617462E46023036B9DB07F0
:1023840044BF32F8253001F81530F0BD37F8044B5E
:10239400013EA4B200F8024C240A00F8014CECE718
:1023A400D0F8BC3210B5D0F8B8425BB194F8000252
:1023B400FF2807D09B6894F8012221469847FF2301
:1023C40084F80032002010BD432303800048704786
:1023D400400000204323038000487047840000200D
:1023E4004323038000487047D40000200A2303805D
:1023F40000487047C800002038B50546D0F8B842F8
:1024040001F0C8FBD5F8B832C4F80C024BB1D5F8CA
:10241400BC3204F50371DB68D4F804029847002049
:1024240038BD022038BDF8B5D0F8B862CEB1142357
:1024340003FB0103DA6982B1D0F8C04204EB411412
:10244400A56BB2FBF5F405FB142434B9DC61224618
:10245400234601F083FB2046F8BD0020C6F8140291
:10246400F8BD0220F8BD2DE9F7434FF000080A78C3
:10247400054612F060040E46D0F8B8728DF8058057
:10248400ADF8068028D0202C47D1CC884B78E4B115
:10249400120611D5D0F8BC223946D2F80890184655
:1024A4002246C847F2883946284600F048FC44468C
:1024B400204603B0BDE8F08387F8003287F8014274
:1024C4002246394600F050FCF1E7D0F8BC22184609
:1024D40095682246A847EBE74F780A2F0DD00B2FBB
:1024E40015D0D7B990F89C32032B14D102220DF1E8
:1024F400060100F024FC3C46DAE790F89C32032BFA
:1025040009D101220DF1050100F019FCD0E790F882
:102514009C32032BCCD03146284600F0E9FB022440
:10252400C6E738B504460025812101F0CFFA012120
:10253400E562204601F0CAFAC4F86C5182212046B3
:1025440001F0C4FAD4F8B83225644BB1D4F8BC32E3
:102554005B689847D4F8B80201F024FBC4F8B85279
:10256400002038BD037C2DE9F0410446CBBB4FF479
:10257400007302228121012501F098FA4FF40073BF
:10258400E56229460222204601F090FAC4F86C5113
:102594000125082303228221204601F087FA2564BD
:1025A4004FF4077001F0FAFA0646C4F8B80258B3BB
:1025B4000027D4F8BC321B68984794F81080C6F8FA
:1025C4001472C6F81872B8F1000F13D14FF40073E7
:1025D400D6F804222946204601F0CEFA4046BDE84A
:1025E400F081012540230222812101F05FFAE56296
:1025F4004023C6E74023D6F804222946204601F0AA
:10260400BBFA3846BDE8F0812846BDE8F08119B12F
:10261400C0F8BC120020704702207047D0F8B832CE
:102624000020C3F80812C3F810227047D0F8B8325B
:102634000020C3F804127047D0F8B82210B582B154
:10264400D2F81442012374B9C2F81432D2F8103209
:1026540081210363D2F808229BB201F07FFA20465D
:1026640010BD022010BD184610BDD0F8B82210B518
:1026740062B1047C44B94FF40073D2F804220121FE
:1026840001F07AFA002010BD4023F6E7022010BDC5
:1026940008B580B1D0F8B43213B10023C0F8B43215
:1026A40009B1C0F8B0120123027080F89C3201F025
:1026B400AFF9002008BD022008BD19B1C0F8B4125A
:1026C400002070470220704708B501F0E1F90020AE
:1026D40008BD08B5D0F8B4320BB9022008BD1B6898
:1026E40098470028F9D108BD08B5D0F8B4325B6822
:1026F4009847002008BD38B500F52A7504462846D9
:1027040000F0E2FA012394F8A812C4F89432B4F861
:10271400AE32C4F8983201F01F03012B0ED007D358
:10272400022B10D001F08001204601F0DDF903E016
:102734002946204600F0F6F8002038BD29462046F8
:1027440000F014FAF8E72946204600F034FAF3E7DB
:1027540070B50546164649BBD0F89432032B1ED1FA
:10276400D0F86031D0F8642193420BD99B1A9A4275
:10277400C0F860318CBF9AB292B2314600F003FBCC
:10278400002070BDD0F8B4321B6923B190F89C22AC
:10279400032A00D19847284600F0FDFAF0E7052BFC
:1027A400EED1C5F8941201F09FF9E9E7D0F8B432FC
:1027B4009B692BB190F89C22032A01D19847DFE74B
:1027C400022070BD70B5134604460E46002947D159
:1027D400D0F89422022A3CD1056A426A954213D960
:1027E400AA1A0262194692B200F0B6FA33461A46A1
:1027F4001946204601F0C0F994F8A0320020012BBC
:102804003AD184F8A00270BDC369B3FBF2F502FBB0
:10281400153565B99A420AD8D0F89822934206D25F
:102824002A4600F099FAC4F898522B46DFE7D4F808
:10283400B432DB682BB194F89C22032A01D12046E0
:1028440098478021204601F04FF9204600F0AEFA67
:10285400D2E732F00403CFD1802101F045F9CBE770
:10286400D0F8B4325B6933B190F89C22032A02D1C8
:102874009847002070BD022070BD002270B5044648
:10288400012540261146402301F010F933468021EA
:10289400C4F85851C4F864610022204601F006F9D6
:1028A4000021D4F8B832A561666284F89C52C4F859
:1028B40094126160C4F8A41223B1D4F8B43220464F
:1028C4005B689847002070BD01740020704790F841
:1028D4009C3280F89D32042380F89C32002070479B
:1028E40090F89C32042B04BF90F89D3280F89C32FF
:1028F4000020704708B590F89C22032A04D1D0F830
:10290400B432DB6903B19847002008BD10B5044612
:10291400802101F0E9F82046BDE81040002101F0D3
:10292400E3B8000037B50B78044603F06003202BAE
:102934000D4612D0402B10D0002B5CD14B78092BC4
:1029440058D8DFE813F0E90005015700FE005700EE
:10295400840013005700D200A000D4F8B4322946F2
:102964009B6820469847002003B030BD0023ADF893
:1029740006304B881A0A013A062A3BD8DFE802F0EF
:1029840004202D3A3A525C00D0F8B0321B680DF1A5
:102994000601207C9847BDF8062052B1EB8843B16C
:1029A4009A4228BF1A4601462046ADF8062000F098
:1029B400C6F9EB88002BD6D1204600F0ECF9D2E71B
:1029C400027CD0F8B43232B99B6A0DF10600984704
:1029D40002234370DFE7DB6AF7E7DBB2052B09D894
:1029E400DFE803F0030C1014181CD0F8B0325B6855
:1029F400002BCCD12046FFF789FFB4E7D0F8B032E2
:102A04009B68F5E7D0F8B032DB68F1E7D0F8B03274
:102A14001B69EDE7D0F8B0325B69E9E7D0F8B03272
:102A24009B69E5E7037C002BE4D1D0F8B4320DF1C7
:102A340006005B6B9847AEE7037C002BDAD1D0F835
:102A4400B4320DF106001B6B98470723C1E78B884E
:102A5400002BCFD1CB88002BCCD14D887F2DC9D86A
:102A640090F89C32E9B2032BC4D080F89E1201F096
:102A740067F8204600F08FF91DB1022384F89C32D8
:102A840071E70123FAE78978374D01292970B1D814
:102A940090F89C32022B08D0032B14D0FFF736FF9A
:102AA40029782046FFF720FE5DE7002984D0012124
:102AB4000323416080F89C322046FFF70AFE022877
:102AC4007FF47AAF96E731B90223416080F89C32F3
:102AD400FFF70AFE70E7416801293FF46DAFC9B200
:102AE400FFF702FE29786160E6E7CA88012A81D1EE
:102AF40090F89C32002B3FF47DAF022B04D9032BBA
:102B04007FF478AF011D03E00146002341F8083F3C
:102B1400204600F014F926E790F89C32013B022B82
:102B24003FF668AFCB88022B7FF464AF0123C36008
:102B3400D0F8A4320BB10323C360022204F10C01C8
:102B4400E6E74B88012B7FF40EAFC4F8A43233E7D9
:102B540090F89C32013B022B3FF64CAF4B88012B83
:102B64007FF401AF0023F0E78003002038B50B7831
:102B7400044603F06003202B0D4602D0402B00D006
:102B8400B3B994F89C32013B022B10D82B79012B5A
:102B94000DD8D4F8B43229469B6820469847EB8870
:102BA4001BB910B9204600F0F6F8002038BD2046C5
:102BB400FFF7ACFEF9E738B50A78044602F0600284
:102BC400202A0B4613D0402A11D06AB95D788A882E
:102BD400012DD1B21FD035D3032D05D190F89C22FD
:102BE400022A26D0032A0AD0FFF790FE05E0D4F883
:102BF400B4221946926820469047002038BD5A886E
:102C04002AB94A0603D0DB880BB900F06DFF2046D1
:102C140000F0C1F8F1E790F89C22022A09D0032AB7
:102C2400E2D15B88002BE8D14D06F0D000F06AFFBA
:102C3400EDE74B0616D000F057FF8021204600F048
:102C440053FFDAE790F89C32022B0DD0032BCBD143
:102C5400142312F0800F01F00F0203FB020214D0C0
:102C64009269EAB92046BFE74906FBD113064FF043
:102C740000034FF002024CBF00F1140100F5AA71E9
:102C84000B60204600F05BF8B7E7D2F85821002A21
:102C9400E8D001F07F0503FB050505F5AA7504E0FE
:102CA40001F07F0505FB0335054411F07F0303D1D3
:102CB4002B6002222946E4E7204600F031FF08B1E8
:102CC4000123F5E72860F4E70B7803704B78437031
:102CD400CA788B7803EB022343804A790B7903EBA0
:102CE40002238380CA798B7903EB0223C380704764
:102CF40010B50446802100F0F7FE2046BDE81040E0
:102D0400002100F0F1BE30B588B105462B1A15F844
:102D1400014BDBB2002CF9D101335B0013800B7043
:102D240003234B700223013810F8015F05B930BD4D
:102D34005A1CCD54D2B20233DBB28C54F4E713469E
:102D4400022210B5C0F89422C3610A46036200212E
:102D540000F004FF002010BD08B513460A46002108
:102D640000F0FCFE002008BD1346032210B5C0F895
:102D74009422C0F85C310A46C0F86031002100F0AA
:102D8400FBFE002010BD08B513460A46002100F0E2
:102D9400F3FE002008BD08B50423C0F894320023D4
:102DA4001A46194600F0DAFE002008BD08B50523CE
:102DB400C0F8943200231A46194600F0DDFE0020C4
:102DC40008BD000010222DE9F04788B00DEB020089
:102DD400002100F0B5FF564BDFF864819A69554F26
:102DE40042F010029A619A69534D02F01002009267
:102DF400009A9A69404642F020029A619A694FF417
:102E0400425102F020020192019A9A69002442F090
:102E140004029A619A69022602F004020292029A5A
:102E24009A694FF0010942F008029A619B690022F5
:102E340003F008030393039BFDF728FC38460022A4
:102E4400E021FDF723FC284600224FF4E261FDF760
:102E54001DFC012240464FF40061FDF717FC4FF4BE
:102E6400625304A9404604934FF01108CDF814901E
:102E740006940796FDF718FB202304A9384604930B
:102E84004FF0030ACDF8148006940796FDF70CFB67
:102E9400C02304A938460493CDF814800694CDF8D1
:102EA4001CA0FDF701FB4FF4826304A92846049398
:102EB400CDF814800694CDF81CA0FDF7F5FA4FF474
:102EC400807304A93846049305960796FDF7ECFA37
:102ED40028230493194B04A9284605930694FDF767
:102EE400E3FA402304A92846049305940694FDF7C5
:102EF400DBFA4FF4407304A928460493CDF81490E8
:102F040006940796FDF7D0FA224621460920FDF7DC
:102F140005FA0920FDF736FA224621461720FDF767
:102F2400FDF91720FDF72EFA08B0BDE8F08700BFC1
:102F34000010024000080140000C01400000211074
:102F44000010014010B514464FF0FF3392B202480E
:102F5400FEF79CFC204610BD2807002030B597B032
:102F6400282200210CA800F0EBFE1422002101A865
:102F740000F0E6FE182200210DEB020000F0E0FE56
:102F84004FF48033012202250D9314934FF4E01380
:102F94000CA80C92109215931395FDF765FF0F235F
:102FA400002401934FF48063294601A804930295F9
:102FB40003940594FEF75AF9102306A806930B947C
:102FC400FEF712FA22464FF0C0612046FEF7EAF8F7
:102FD40017B030BD1FB51F4A1F49531F0193A2F1FB
:102FE4000A03029200930446A2F10F031B48143A09
:102FF40000F02AFF19491A4800F0AAFE194B1B7861
:10300400012B0CD11548FDF715F94FF0FF3382B2AF
:103014001249154804B0BDE81040FEF737BC134B05
:103024001B78012B09D10D48FDF704F981B20B4837
:1030340004B0BDE8104000F077BC012C07D107486C
:10304400FDF7F8F881B2054800F06EFCDAE704B049
:1030540010BD00BF2B0100203A5200084B04002091
:10306400455200084A04002068070020810300201C
:103074000022264B70B5402125481A60FDF700FB5D
:1030840001280CBF234A244A136801331360234ADE
:10309400136816460A2B36DD1E4D2A68072A14DDEE
:1030A4004FF400511E480122FDF7F0FA1D491E4855
:1030B400FDF7B6F848B91D491B4800F0E9FE0120A8
:1030C400FFF788FF1A4800F0B7FE134C2268072A5E
:1030D40014DD4FF4005112480022FDF7D7FA1349CA
:1030E4001148FDF79DF848B90E490F4800F0D0FE8D
:1030F4000120FFF76FFF0F4800F09EFE00233360AE
:103104002B60236070BD0133136070BD6804002020
:10311400000C01406C0400206004002064040020C2
:10312400001001407D5200081C010020805200085C
:10313400835200089552000870B50546164800F001
:103144007BFE1649164800F0A3FE0020FFF742FF5D
:103154000024144E6D00E3B2AB4204F1010408DB19
:1031640011490F4800F094FEBDE870400F4800F08C
:1031740063BE4FF400613046FDF78DFA4FF4FA70E8
:10318400FDF7A8F830464FF40061FDF784FA4FF4D8
:10319400FA70FDF79FF8DEE7555200087D520008EB
:1031A40026010020001001408052000867520008E8
:1031B40038B546490546FDF733F8044648B944484E
:1031C40000F03AFE4349204600F06AFE424B1C6080
:1031D40038BD42492846FDF723F8044658B940480B
:1031E40000F02AFE3B49204600F05AFE2046BDE886
:1031F4003840FFF7EFBE3B492846FDF711F8044677
:1032040008BB394800F018FE3249204600F048FE59
:1032140001224FF480713548FDF738FA01224FF44A
:1032240000713248FDF732FA4FF47A70FDF752F824
:103234002F49304800F02CFE01224FF480512E48D3
:10324400FDF724FAD2E72D492846FCF7E9FF0446A6
:10325400E0B92B4800F0F0FD1E49204600F020FEA6
:1032640022464FF480712148FDF710FA22464FF4AC
:1032740000711E48FDF70AFA4FF47A70FDF72AF838
:1032840020491C4800F004FE2246D6E71E49284681
:10329400FCF7C6FF0446B8B91C4800F0CDFD0D4943
:1032A400204600F0FDFD054620B9BDE83840184829
:1032B40000F0C2BD0146174800F04AFD284600F060
:1032C40010FDFFF739FF91E738BD00BFA752000892
:1032D400AA5200088152000858040020BF52000876
:1032E400C2520008CF520008D2520008000C01401C
:1032F400805200082101002000100140E052000823
:10330400E35200087D520008EF520008F252000810
:1033140002530008195300082DE9F041FCF7B6FFE9
:10332400FFF71CFEFFF74EFD00F08AF900F0FEF9EE
:1033340000F018FA00F0A8F900F092FA0022252013
:103344001146FCF7EBFF2520FDF71CF80022362080
:103354001146FCF7E3FF3620FDF714F8002226207F
:103364001146FCF7DBFF2620FDF70CF80122254966
:103374002548FEF7E7FA2548FEF7AEF8244D254820
:10338400FEF7AAF8244800F057FDA846234E2B78F0
:10339400012B14D12149224800F0DAFC33785BB1C7
:1033A4002049304600F07CFD044601461E4800F0EA
:1033B400CFFC2046FFF7FCFE002388F800301B4FAB
:1033C4003B78012B16D11A4C1A48214600F0C0FC58
:1033D40023785BB11349204600F062FD04460146A0
:1033E400114800F0B5FC2046FFF7E2FE0023124A24
:1033F4003B701370114B1B68012BC8D1FFF738FECB
:10340400C5E700BFA406002068070020A806002026
:1034140081030020E80600202553000882030020D1
:103424002F53000881520008485300084A04002022
:10343400E6030020575300085C04002068040020C1
:1034440002680F4B9A4219D10E4B1B780D2B0CD1ED
:1034540000210D4B0D4A1B78D15401220C4B1A70DC
:10346400012208490B48FEF76DBA002BF8D0064933
:103474000A78501C087005498B54F1E7704700BF67
:1034840000440040A40600205C040020E603002061
:103494004A040020680700200368074A934204D1C5
:1034A400064A1368013313607047054A934202BF0A
:1034B4000122044B1A607047001000407004002081
:1034C4000014004068040020202802D1034800F0C2
:1034D400B3BC082801D10248F9E770471852000824
:1034E40029520008704700000E4B82B09A6942F0DE
:1034F40001029A619A6902F001020092009ADA6963
:1035040042F08052DA61DB69074A03F08053019389
:10351400019B536823F0E06343F00073536002B0EF
:10352400704700BF00100240000001407047FEE7F2
:10353400FEE7FEE7FEE7704770477047FCF7B8BE4A
:103544000820FDF7AFB800000148FDF7E9B900BF56
:103554003C1200202020FDF7A5B800000148FEF72A
:1035640059BA00BF280700200148FEF753BA00BF2C
:10357400680700200148FDF7C3BF00BFA80600206C
:103584000148FDF7BDBF00BFE806002070B50E4638
:1035940015460C46A31B9D4201DC284670BDAFF3C3
:1035A400008004F8010BF5E708B50A4B02461968D8
:1035B40009B9094919606946186802448A4206D95A
:1035C40000F094FB0C2303604FF0FF3008BD1A6039
:1035D40008BD00BF74040020AC1600204FF0FF307B
:1035E40070474FF4005300204B6070470120704730
:1035F400002070470F4B1A6842F001021A605968A4
:103604000D4A0A405A601A6822F0847222F4803209
:103614001A601A6822F480221A605A6822F4FE02A0
:103624005A604FF41F029A604FF00062034B9A6095
:10363400704700BF001002400000FFF800ED00E0FA
:1036440042F20F7313B50E4A0E48002480E80C00B2
:1036540041F6FF03009401948460C3608461FEF723
:103664003DF808B1FFF73EFF69460648009401940F
:10367400FEF74EF808B1FFF735FF02B010BD00BFEA
:1036840000100040A806002042F20F7313B50E4A42
:103694000E48002480E80C0040F27F23009401943B
:1036A4008460C3608461FEF719F808B1FFF71AFF5C
:1036B4006946064800940194FEF72AF808B1FFF71A
:1036C40011FF02B010BD00BF00140040E806002046
:1036D40007B50368124A93420CD1124BDA6942F0DF
:1036E4001002DA61DB6903F010030093009B03B05E
:1036F4005DF804FB0C4A9342F9D10A4B3720DA698E
:1037040042F02002DA610022DB69114603F0200353
:103714000193019BFCF702FE3720FCF733FEE6E73A
:1037240000100040001002400014004008B54FF49F
:10373400E13E0A480A4B0C2280E80840002342611B
:103744008360C36003618361C361FEF771F818B1DC
:10375400BDE80840FFF7C6BE08BD00BF280700202B
:103764000038014008B54FF4E13E0A480A4B0C22E8
:1037740080E80840002342618360C3600361836181
:10378400C361FEF755F818B1BDE80840FFF7AABEBB
:1037940008BD00BF6807002000440040102210B597
:1037A400044688B00DEB0200002100F0C9FA23683A
:1037B400274A934229D1274B04A99A69264842F4FF
:1037C40080429A619A6902F480420092009A9A694E
:1037D40042F004029A619B6903F004030193019B84
:1037E4004FF4007304930223059303230793FCF718
:1037F4005BFE4FF480630493002304A916480593E9
:103804000693FCF751FE08B010BD144A9342FAD156
:10381400104B04A9DA69104842F40032DA61DA691B
:1038240002F400320292029A9A6942F004029A6106
:103834009B6903F004030393039B0423049302236F
:10384400059303230793FCF72FFE0823D3E700BF58
:1038540000380140001002400008014000440040CC
:1038640008B500220E490F48FEF712FF08B1FFF712
:1038740039FE0D490B48FEF720FF08B1FFF732FE71
:103884000A490848FEF7C3FE08B1FFF72BFE0548B6
:10389400FEF71AFF18B1BDE80840FFF723BE08BDC4
:1038A40044010020A8070020080000203401002063
:1038B400002070470020704738B504460D46014685
:1038C4000C48FEF7B3FE00220B49286813B283426A
:1038D40007D2E05C01320D2801D0C854F5E700227C
:1038E400CA540122054B03481A70FEF7BEFE00209D
:1038F40038BD00BFA80700208203002081030020F8
:1039040010B5064C002206492046FEF787FE0549FD
:103914002046FEF78BFE002010BD00BFA807002044
:10392400540E00206C0A002010B5094C0A46D4F845
:10393400B832D3F8143243B901462046FEF76EFE7E
:103944002046BDE81040FEF777BE012010BD00BF41
:10395400A807002007B50D4B02689A4212D103F55F
:10396400DA33DA69142042F40002DA610022DB69F6
:10397400114603F400030193019BFCF7CFFC1420D0
:10398400FCF700FD03B05DF804FB00BF005C0040E1
:1039940000F50C71D0F86802FEF7ADBE00EB4113E0
:1039A400D3F83C21D0F86802FEF7D2BE00EB4113F5
:1039B400DA6BD0F86802FEF705BFD0F86802FEF7AC
:1039C40099BF836810B5022B044601D0FFF78AFD26
:1039D400D4F868020121FEF777FFD4F86802BDE845
:1039E4001040FEF74ABF000010B50446D0F8680244
:1039F400FEF76DFFA36923B1024A136943F006037E
:103A0400136110BD00ED00E0D0F86802FEF768BF56
:103A14000223082210B51C4904461C4880E80E0005
:103A24000023C4F8C002C0F868428361C361036222
:103A3400FCF744FE08B1FFF755FD00221823114698
:103A4400D4F8C002FDF7F8F9582300228021D4F8F5
:103A5400C002FDF7F1F9C02300228121D4F8C0028D
:103A6400FDF7EAF94FF4887300220121D4F8C0026B
:103A7400FDF7E2F94FF4807300228221D4F8C002EA
:103A8400FDF7DAF9002010BD005C00403C12002074
:103A940008B5D0F8C002FCF786FE03289ABF024B93
:103AA400185C022008BD00BF8453000810B51C46F2
:103AB400D0F8C00213462246FCF7A0FE03289ABFA2
:103AC400014B185C022010BD8453000808B5D0F8DF
:103AD400C002FCF7C6FE03289ABF024B185C022002
:103AE40008BD00BF8453000808B5D0F8C002FDF734
:103AF4003DF903289ABF024B185C022008BD00BFA1
:103B04008453000808B5D0F8C002FDF763F9032810
:103B14009ABF024B185C022008BD00BF8453000802
:103B24000A06D0F8C03245BF01F07F0103EB411310
:103B340003EB411393F82A0058BF93F82A01704706
:103B440008B5D0F8C002FCF745FE03289ABF024B23
:103B5400185C022008BD00BF8453000808B5D0F8E3
:103B6400C002FCF7C6FE03289ABF024B185C022071
:103B740008BD00BF8453000808B5D0F8C002FCF7A4
:103B840099FE03289ABF024B185C022008BD00BFAF
:103B940084530008D0F8C002FCF7A4BE0048704764
:103BA4007804002070477047122301480B80704747
:103BB40060010020042301480B8070477401002039
:103BC400002330B51D46DCB2A24200D830BD040F3C
:103BD400092C94BF3034373401F8134001EB43040B
:103BE400000165700133EEE71A2310B50B80094B11
:103BF400186808331B68C0180AD0074B08221C68D1
:103C04000649FFF7DDFF042205492046FFF7D8FFE8
:103C1400044810BDE8F7FF1FECF7FF1F7A010020EE
:103C24008A0100207801002010B5044C0A4604489B
:103C34002146FFF768F8204610BD00BFA8140020F5
:103C4400A153000810B5044C0A4604482146FFF766
:103C54005AF8204610BD00BFA8140020B453000831
:103C640010B5044C0A4604482146FFF74CF8204698
:103C740010BD00BFA81400208853000810B5044CE0
:103C84000A4604482146FFF73EF8204610BD00BF0F
:103C9400A814002093530008002103E00B4B5B5849
:103CA400435004310A480B4B42189A42F6D30A4A4D
:103CB40002E0002342F8043B084B9A42F9D3FFF791
:103CC40099FC00F019F8FFF727FB704778550008B6
:103CD400000000206403002064030020AC160020D0
:103CE400FEE70A22002100F0AFB90000014B18687A
:103CF400704700BF9401002070B500250C4E0D4C98
:103D0400A41BA410A54209D101F070FA00250A4EA3
:103D14000A4CA41BA410A54205D170BD56F8253049
:103D240098470135EEE756F8253098470135F2E714
:103D34007055000870550008705500087455000847
:103D440003460244934200D1704703F8011BF9E78C
:103D54000FB40A4B13B51C6824B1A36913B92046E8
:103D640000F03AFB05AB049AA1682046019300F0E9
:103D740061FE02B0BDE8104004B070479401002019
:103D840070B50E46054618B183690BB900F024FBE3
:103D9400AB69AC6813B9284600F01EFB234B9C4268
:103DA40017D16C68A3891B071DD52369DBB1013EBC
:103DB400A36816F8011F013BA360E9B9002B2EDAB2
:103DC40022460A21284600F055F9013011D00A2074
:103DD40070BD174B9C4201D1AC68E3E7154B9C4284
:103DE40008BFEC68DEE72146284600F095F9002874
:103DF400DDD04FF0FF3070BD002B04DAA26993428E
:103E040006DB0A2904D023685A1C22601970CFE704
:103E14002246284600F02EF90130C9D1E9E70A20EC
:103E240023685A1C2260187070BD00BFF05300084C
:103E340010540008D0530008024B01461868FFF7DD
:103E44009FBF00BF940100200EB44FF4027100B56F
:103E54009CB0ADF814106FF00041049107914FF637
:103E6400FF711DAB02900690084853F8042BADF87F
:103E74001610006802A9019300F0C0FC0022029B06
:103E84001A701CB05DF804EB03B070479401002075
:103E9400034611F8012B03F8012B002AF9D17047CE
:103EA400134B2DE9F0411D680646AC6D0F46B4B9BD
:103EB400502000F083FBA865046044608460C46003
:103EC4000461446184618462C462046344638463FE
:103ED400C463046444648464C46404774462AA6D5F
:103EE40039463046BDE8F041012300F003B800BF75
:103EF40094010020F0B518B9106808B9F0BD204647
:103F040004460F4614F8015B17F8016B1EB965B936
:103F140015602846F0BDB542F6D1002BEFD11460F0
:103F24000370F0BD1C460CE015B90E4614F8013BB5
:103F340016F8015BAB42F7D1002BF3D0002304F851
:103F4400013C1460F0BD2DE9F84F80468946924645
:103F54001F468B465D460A9815F8014B00F0C6FAD9
:103F64002044467816F008060BD12D2C0BD10126DF
:103F74002C780BF1020567B1102F14D1302C0AD024
:103F840011E0AB46E6E72B2C04BF2C780BF10205BD
:103F9400F1E7302C27D12B7803F0DF03582B4BD1DA
:103FA40010276C780235002E0CBF6FF000414FF0E3
:103FB40000410022B1FBF7FE104607FB1E1CA4F1D2
:103FC4003003092B11D81C46A7421DDD531C07D012
:103FD400864516D301D1A44513DB012200FB07401B
:103FE40015F8014BEBE70A27DDE7A4F14103192B90
:103FF40001D8373CE8E7A4F16103192B04D8573CF6
:10400400E2E74FF0FF32EBE7531C08D122230846C6
:10401400C8F80030BAF1000F07D1BDE8F88F06B137
:104024004042BAF1000F0CD022B1013DCAF8005051
:10403400BDE8F88F4D46F9E73024002FB3D10827A7
:10404400B1E7BDE8F88F0000084B37B51C68084D90
:10405400236A002B08BF2B46009313460A460146E9
:104064002046FFF770FF03B030BD00BF940100206D
:10407400F8010020F8B50E461446054618B18369C8
:104084000BB900F0A9F9214B9C422AD16C68A369B1
:10409400A360A3891A072ED5236963B32369206813
:1040A400F6B2C01A63693746984204DB21462846B3
:1040B40000F028F928BBA3680130013BA360236802
:1040C4005A1C22601E706369984204D0A389DB07DE
:1040D40019D50A2E17D12146284600F013F990B1BC
:1040E4000FE00B4B9C4201D1AC68D0E7094B9C42DA
:1040F40008BFEC68CBE72146284600F00DF80028FD
:10410400CCD04FF0FF373846F8BD00BFF05300085D
:1041140010540008D0530008324B70B51D68064691
:104124000C4625B1AB6913B9284600F055F92E4B5E
:104134009C420FD16C68B4F90C309AB215072CD498
:10414400D00611D40922326043F04003A3814FF01A
:10415400FF3070BD254B9C4201D1AC68EBE7244B8A
:104164009C4208BFEC68E6E7510712D5616B41B188
:1041740004F14403994202D0304600F039FA002396
:104184006363A38923F02403A38100236360236969
:104194002360A38943F00803A38123694BB9A3894E
:1041A40003F42073B3F5007F03D02146304600F0BA
:1041B400C5F9A28912F001030CD00023A36063693E
:1041C4005B42A361236953B9B4F90C3013F0800046
:1041D400BAD170BD920758BF6369A360F2E70020AB
:1041E400F7E700BF94010020F053000810540008C2
:1041F400D05300088A892DE9F041054610070C4682
:104204005AD44B68002B05DC0B6C002B02DC00201D
:10421400BDE8F081E66A002EF9D0002312F4805242
:104224002F682B6033D0606DA3895A0705D5636866
:10423400C01A636B0BB1236CC01A00230246E66AF2
:10424400216A2846B047431CA38906D129681D2941
:104254004BD82B4ACA40D60747D500226260226950
:10426400D904226004D5421C01D12B6803B96065CE
:10427400616B2F600029CAD004F14403994202D033
:10428400284600F0B5F900206063BDE8F081216A9A
:1042940001232846B047411CC6D12B68002BC3D04C
:1042A4001D2B01D0162B01D12F60B0E7A38943F059
:1042B4004003A381BDE8F0810F69002FA7D09307C5
:1042C40018BF00230E6808BF4B69A6EB07080F60F0
:1042D4008B60B8F1000F9ADD43463A46216A2846BE
:1042E400A66AB047002807DCA38943F04003A381F2
:1042F4004FF0FF30BDE8F0810744A8EB0008E8E781
:104304000100402038B50B6905460C46DBB118B1F5
:1043140083690BB900F060F80C4B9C4209D16C68BE
:10432400B4F90C307BB121462846BDE83840FFF78C
:1043340061BF074B9C4201D1AC68F1E7054B9C423D
:1043440008BFEC68ECE7002038BD00BFF05300085C
:1043540010540008D0530008014900F0A9B800BF68
:1043640009430008002310B50446036043608360DA
:1043740081814366C28103614361836119460822D6
:104384005C30FFF7DDFC054B24626362044BA362DF
:10439400044BE362044B236310BD00BFB54F000818
:1043A400D74F00080F5000083350000870B5682537
:1043B4004A1E55430E4605F1740100F065F90446A2
:1043C40040B1002180E842000C30A06005F1680291
:1043D400FFF7B6FC204670BD836910B5044633BBB5
:1043E4008364C3640365124B124A1B688262984259
:1043F40004BF0123836100F01FF86060204600F0D1
:104404001BF8A060204600F017F80022E0600421A9
:104414006068FFF7A7FF01220921A068FFF7A2FF48
:1044240002221221E068FFF79DFF0123A36110BD62
:10443400CC5300085D430008F8B51C4B07461E68C2
:10444400B36913B93046FFF7C7FF4836B4687368D9
:10445400013B03D5336833B13668F7E7B4F90C5040
:104464006DB16834F4E704213846FFF79FFF3060EC
:104474000028F1D10C2304463B602046F8BD4FF6DA
:10448400FF73E38101236566A3812560A5606560F0
:1044940025616561A5610822294604F15C00FFF7E6
:1044A4004FFC6563A563A564E564E6E7CC530008A7
:1044B4002DE9F84380468946002600F1480414B9E2
:1044C4003046BDE8F883A5686768013F01D52468D4
:1044D400F5E7AB89012B07D9B5F90E30013303D0C9
:1044E40029464046C84706436835EEE7D0F8EC0055
:1044F400704770B50E46B1F90E1090B000291446FD
:104504001D4607DA00232B60B3891A0610D44FF432
:1045140080630EE001AA00F0BDFD0028F2DB029AE0
:1045240002F47042A2F500535A425A412A60EEE75F
:1045340040230020236010B070BD00008B8973B548
:104544009D0706460C4607D504F147032360236103
:104554000123636102B070BD01AB6A46FFF7C9FF76
:1045640000990546304600F08FF848B9B4F90C308C
:104574009A05EFD423F0030343F00203A381E3E796
:104584000D4BB362A389206043F08003A381009B99
:1045940020616361019B5BB1B4F90E10304600F0F9
:1045A4008BFD28B1A38923F0030343F00103A38106
:1045B400A3891D43A581CDE75D430008024B014655
:1045C400186800F061B800BF9401002082B001B9FE
:1045D40001A942B14BB113780B601278101C18BFBB
:1045E400012002B070471046FBE76FF00100F8E7C6
:1045F40038B50546002943D051F8043C0C1F002B64
:10460400B8BFE41800F0ADFD1E4A1368104633B974
:10461400636014602846BDE8384000F0A3BDA3429F
:104624000BD921686218934201BF1A685B6852185B
:10463400226063600460EDE713465A680AB1A2423F
:10464400FAD919685818A0420BD1206801445818A7
:1046540082421960DED110685268014419605A60C0
:10466400D8E702D90C232B60D4E7206821188A42AA
:1046740001BF116852680918216062605C60C9E773
:1046840038BD00BF9806002070B5CD1C25F0030589
:1046940008350C2D38BF0C25002D064601DBA94238
:1046A40003D90C233360002070BD00F05AFD234A67
:1046B4001468214691B9224C23681BB9304600F096
:1046C40067FC20602946304600F062FC431C26D17A
:1046D4000C233046336000F045FDE4E70B685B1BB8
:1046E4001AD40B2B0FD90B60CC18CD50304600F0E8
:1046F40039FD04F10B00231D20F00700C31A1BD061
:104704005A42E25070BD8C420BBF63684B68136021
:10471400636018BF0C46E9E70C464968CAE7C41C45
:1047240024F00304A04205D0211A304600F030FCE6
:104734000130CDD02560D9E770BD00BF98060020B8
:104744009C0600202DE9F0478E6882469E420C4666
:104754009146984635D88A8912F4906F31D0022355
:10476400256809696F1A656905EB450595FBF3F53D
:1047740008F101033B449D4238BF1D46530531D522
:104784002946FFF781FF064650B90C23CAF80030CA
:10479400A3894FF0FF3043F04003A381BDE8F087C5
:1047A4003A46216900F0B8FCA38923F4906343F0EE
:1047B4008003A38126613E44266046466561ED1B65
:1047C400A560464528BF464649463246206800F063
:1047D400AEFCA36800209B1BA36023681E442660D4
:1047E400BDE8F0872A4600F0BEFC06460028E1D169
:1047F40021695046FFF7FCFEC7E700002DE9F04FA2
:104804009DB003938B8980461C060D4616460FD532
:104814000B696BB94021FFF737FF2860286128B97D
:104824000C23C8F800304FF0FF30C4E040236B6124
:104834000023099320238DF8293030234FF0010BF6
:104844008DF82A3037463C4614F8013B002B3CD106
:10485400B7EB060A0BD05346324629464046FFF7CB
:1048640071FF013000F0A280099B534409933B7807
:10487400002B00F09B8000234FF0FF32049307933A
:10488400059206938DF853301A93052221785048E7
:1048940000F034FC671C049BD8B9D90644BF20221D
:1048A4008DF853201A0744BF2B228DF85320227809
:1048B4002A2A16D000210A20079A27463B78013479
:1048C400303B092B50D9C9B111E0252BC0D0274664
:1048D400B9E73F4A3C46801A0BFA00F018430490AB
:1048E400D3E7039A111D12680391002A01DB079292
:1048F40004E0524243F00203079204933B782E2BC8
:104904000DD17B78791C2A2B32D1039B02371A1DD7
:104914001B680392002BB8BF4FF0FF3305932D4C57
:1049240003223978204600F0E9FB38B14023001B0C
:1049340003FA00F0049B01370343049339780622F9
:1049440025487E1C8DF8281000F0D8FB002835D0AF
:10495400224BFBB9039B073323F00703083303936C
:10496400099B4B4409936DE700FB02320121A4E744
:1049740000230A24184605930F463A780131303A49
:10498400092A03D9002BCAD00590C8E704FB0020EC
:104994000123F1E703AB00932A46114B04A94046D7
:1049A400AFF30080B0F1FF3F8146D9D1AB895B06FC
:1049B4003FF539AF09981DB0BDE8F08F03AB009304
:1049C4002A46074B04A9404600F0C2F9EAE700BFB3
:1049D4003A54000840540008445400080000000001
:1049E40049470008936810B4013B002B936008DA30
:1049F4009469A34202DBCBB20A2B02D110BCFFF7AD
:104A040039BB1368581C10601970C8B210BC7047C9
:104A1400F8B506460F461446D518AC4201D100201D
:104A240007E03A4614F8011B3046FFF7DBFF431C4E
:104A3400F3D1F8BD2DE9F04F9DB00C461746039312
:104A4400064618B183690BB9FFF7C6FC7C4B9C4240
:104A540057D17468A38918075DD52369002B5AD0F0
:104A64000023099320238DF8293030234FF0010BC4
:104A74008DF82A30B846454615F8013B002B55D130
:104A8400B8EB070A0BD053463A4621463046FFF7A7
:104A9400BFFF013000F0C480099B5344099398F888
:104AA4000030002B00F0BC8000234FF0FF32049351
:104AB4000793059206938DF853301A9305222978AB
:104AC400604800F01BFB05F10108049B002831D16C
:104AD400D90644BF20228DF853201A0744BF2B2245
:104AE4008DF853202A782A2A2CD000210A20079AEC
:104AF400A84698F800300135303B092B6DD971B3C5
:104B040026E0514B9C4201D1B468A3E74F4B9C4231
:104B140008BFF4689EE721463046FFF7FDFA0028F7
:104B24009ED04FF0FF301DB0BDE8F08F252BA7D0ED
:104B3400A846A0E7434A4546801A0BFA00F01843FA
:104B44000490BBE7039A111D12680391002A01DB4C
:104B5400079204E0524243F002030792049398F848
:104B640000302E2B10D198F8013008F101012A2BC6
:104B740037D1039B08F102081A1D1B680392002B0E
:104B8400B8BF4FF0FF330593314D032298F800105E
:104B9400284600F0B3FA40B14023401B03FA00F06A
:104BA400049B08F101080343049398F800100622BB
:104BB400284808F101078DF8281000F09FFA002812
:104BC40034D0254B03BB039B073323F0070308337F
:104BD4000393099B4B4409934CE700FB02320121E8
:104BE40086E700230A2518460593884698F800208E
:104BF4000131303A092A03D9002BC5D00590C3E707
:104C040005FB00200123F0E703AB00932246134B7E
:104C140004A93046AFF30080B0F1FF3F8146D8D1FC
:104C2400A3895B063FF57DAF09987CE703AB00934E
:104C340022460A4B04A9304600F08AF8ECE700BF8C
:104C4400F05300083A54000810540008D0530008E8
:104C5400405400084454000800000000154A0008AD
:104C64002DE9F04791461F468A680B690646934230
:104C7400B8BF1346C9F8003091F843200C46DDF85C
:104C8400208012B10133C9F800302368990642BF6D
:104C9400D9F800300233C9F80030256815F006054C
:104CA40007D104F1190AE368D9F800209B1A9D4240
:104CB4002ADB94F843302268003318BF012392069C
:104CC4002FD404F1430239463046C047013022D084
:104CD4002368E56803F00603042B18BF0025D9F800
:104CE40000204FF0000908BFAD1AA368226908BF6D
:104CF40025EAE5759342C4BF9B1AED181A344D4555
:104D04001BD10020BDE8F0870123524639463046C6
:104D1400C047013003D14FF0FF30BDE8F0870135C3
:104D2400C1E73020E11881F843005A1C94F845107B
:104D34002244023382F84310C3E701232246394652
:104D44003046C0470130E6D009F10109D7E7000039
:104D54002DE9F04317460A7E85B06E2A984606462A
:104D64000C460C9B01F1430E00F0BC801AD8632A58
:104D74002ED00AD8002A00F0C880582A00F08A8071
:104D840004F1420584F842202AE0642A01D0692A09
:104D9400F6D121681A6811F0800F23D0111D196013
:104DA400136827E0732A00F0B48008D86F2A2AD049
:104DB400702AE5D10A6842F020020A6003E0752AED
:104DC40021D0782ADCD178226F4984F8452064E028
:104DD4001A6801F14205111D1960136884F8423004
:104DE4000123A3E011F0400F02F104011960D7D0B0
:104DF400B2F90030002B03DA2D225B4284F8432001
:104E040062490A2217E02068196810F0800F03D065
:104E1400081D18600B6806E010F0400F01F1040053
:104E24001860F7D00B886F2A14BF0A22082257494A
:104E3400002084F843006568002DA560C0F29C80C2
:104E4400206820F004002060002B3FD1002D40F0AA
:104E540095807546082A0BD12368DA0708D523699B
:104E640062689A42DEBF302305F8013C05F1FF3544
:104E7400AEEB05032361CDF800803B4603AA21462F
:104E84003046FFF7EDFE013055D14FF0FF3005B04D
:104E9400BDE8F08381F845203C492268186812F087
:104EA400800F00F104051D6001D0036802E055067F
:104EB400FBD50388D00744BF42F0200222601BB90F
:104EC400226822F0200222601022B1E77546B3FB6B
:104ED400F2F002FB1033CB5C05F8013D03460028D9
:104EE400F5D1B7E708681A6810F0800F496904D053
:104EF400101D18601368196007E010F0400F02F1EC
:104F0400040018601368F6D01980002375462361E5
:104F1400B1E71A68111D19601568002162682846F6
:104F240000F0ECF808B1401B606063682361002363
:104F340084F843309FE723692A4639463046C04700
:104F44000130A2D023689B0707D5002504F1190975
:104F5400E368039A9B1A9D4205DBE068039B984231
:104F6400B8BF184693E701234A4639463046C0473E
:104F740001308AD00135EBE7002BA7D10B7804F17F
:104F8400420584F8423065E75C5400084B5400083D
:104F940038B50023054C054608462360FEF704FB9C
:104FA400431C02D1236803B12B6038BDA81600202E
:104FB40010B50C46B1F90E1000F0FCF80028ABBF98
:104FC400636DA3891B1823F48053ACBF6365A3816D
:104FD40010BD2DE9F0411F468B890546DB050C46C3
:104FE400164605D502230022B1F90E1000F074F81C
:104FF400A389324623F48053A381B4F90E103B46AF
:105004002846BDE8F04100F023B810B50C46B1F9CC
:105014000E1000F061F8431CA38915BF606523F4EA
:10502400805343F48053A38118BFA38110BDB1F909
:105034000E1000F01FB849B1FF2A8BBF8A230A70F3
:105044000360012088BF4FF0FF3070470846704767
:1050540038B50546084611460022054C22601A461A
:10506400FDF770FF431C02D1236803B12B6038BDE8
:10507400A816002038B50023054C054608462360D1
:10508400FEF7ACFA431C02D1236803B12B6038BD90
:10509400A816002038B50023064C054608461146DC
:1050A4002360FEF79EFA431C02D1236803B12B60F0
:1050B40038BD00BFA816002038B50023054C0546AE
:1050C40008462360FEF792FA431C02D1236803B119
:1050D4002B6038BDA816002038B505460846114691
:1050E4000022054C22601A46FEF782FA431C02D1C4
:1050F400236803B12B6038BDA816002010B5C9B2CF
:1051040002449042034601D1002010BD1C780130B6
:105114008C42F6D1184610BD10B5431E0A44914284
:1051240000D110BD11F8014B03F8014FF7E7884295
:1051340010B501EB020303D8421E99420CD110BDF5
:105144009842F9D28118D21AD34200D110BD13F873
:10515400014D01F8014DF7E711F8014B02F8014F39
:10516400EBE770477047F8B5074614460E4621B979
:105174001146BDE8F840FFF787BA22B9FFF738FABD
:1051840025462846F8BD00F027F884420FD9214669
:105194003846FFF779FA05460028F2D03146224610
:1051A400FFF7BAFF31463846FFF722FAE9E73546FA
:1051B400E7E7000038B50546084611460022054CCD
:1051C40022601A46FEF7E2F9431C02D1236803B1B8
:1051D4002B6038BDA816002051F8040C0028A0F15B
:1051E4000400BCBF0B58C01870470000F8B500BFDE
:1051F400F8BC08BC9E467047F8B500BFF8BC08BCB4
:045204009E4670470B
:1052080002030405060708090A0B0C0D0E0F1010FF
:10521800544C494D495420636C69636B2121210D1D
:1052280000424C494D495420636C69636B2121212C
:105238000D00257325732573257325730020547875
:105248006275666665723A2025730D0A00207363DD
:10525800616E6E696E672E2E2E2E2E2E200D00206A
:105268007363616E20697320636F6D706C6574651C
:105278006421210D00312C00302C0020446F6F7206
:10528800206973206F70656E6564210D0020446F7E
:105298006F7220697320636C6F736564210D004F12
:1052A8004B00204F4B207369676E616C20726563F9
:1052B80065697665640D0042520020426F61726430
:1052C80020526561640D0055440020556E6C6F6373
:1052D8006B20446F6F720D004C4400204C6F636B61
:1052E80020446F6F720D00525300205246494420EB
:1052F8005363616E6E696E670D00206E656564208C
:105308006D6F726520706172616D65746572210DD3
:10531800002073706565643A25730D0A002068657E
:105328006C6C6F3F200D002052656365697665647B
:105338002043444320646174613A2025730D0A00B8
:1053480020636F6D6D616E643A2025730D0A00202D
:10535800526563656976656420646174613A2025E5
:10536800730D0A00000000000000000001020304A1
:1053780006070809000000000102030400020102F8
:1053880043444320436F6E666967004344432049A2
:105398006E746572666163650053544D6963726F1C
:1053A800656C656374726F6E6963730053544D3333
:1053B80032205669727475616C20436F6D506F723C
:1053C80074000000980100200000000000000000A8
:1053D80000000000000000000000000000000000C5
:1053E80000000000000000000000000000000000B5
:1053F80000000000000000000000000000000000A5
:105408000000000000000000000000000000000094
:105418000000000000000000000000000000000084
:1054280000000000000000004300504F534958009E
:105438002E00232D302B2000686C4C0065666745D4
:1054480046470030313233343536373839414243F4
:1054580044454600303132333435363738396162A5
:10546800636465660000202020202020202020285A
:105478002828282820202020202020202020202004
:10548800202020202020881010101010101010103C
:10549800101010101010040404040404040404047C
:1054A80010101010101010414141414141010101FB
:1054B80001010101010101010101010101010101D4
:1054C80001101010101010424242424242020202E1
:1054D80002020202020202020202020202020202A4
:1054E8000210101010200000000000000000000052
:1054F80000000000000000000000000000000000A4
:105508000000000000000000000000000000000093
:105518000000000000000000000000000000000083
:105528000000000000000000000000000000000073
:105538000000000000000000000000000000000063
:105548000000000000000000000000000000000053
:105558000000000000000000000000000000000043
:0855680000000000000000003B
:045570000902000824
:04557400E501000845
:105578000100000010000000692500082725000828
:105588006B24000800000000A52300082B24000855
:10559800FD230008000000000000000000000000DB
:1055A800D9230008CD230008E5230008F1230008CB
:1055B80009024300020100C032090400000102028E
:1055C8000100052400100105240100010424020241
:1055D80005240600010705820308001009040100DC
:1055E800020A0000000705010240000007058102C9
:1055F8004000000009024300020100C03209040013
:105608000001020201000524001001052401000127
:10561800042402020524060001070582030800107D
:1056280009040100020A0000000705010200020047
:1056380007058102000200000A060002000000407F
:105648000100000009074300020104C032090400F8
:1056580000010202010005240010010524010001D7
:10566800042402020524060001070582030800102D
:1056780009040100020A00000007050102400000B9
:105688000705810240000042532C0000312C000025
:1056980000312C000000302C0000000D000000003C
:1056A8000024F40005390008B5380008B9380008A6
:1056B800BD380008AD3B0008B93B00082D3C000888
:1056C800493C0008ED3B0008653C0008813C0008A7
:1056D8001201000202020040830440570002010246
:1056E80003010000040309041A030000000000007D
:1056F80000000000000000000000000000000000A2
:10570800000000009801002000000000F05300088D
:1057180010540008D05300080000000000000000EA
:105728000000000000000000000000000000000071
:105738000000000000000000000000000000000061
:105748000000000000000000000000000000000051
:105758000000000000000000000000000000000041
:1057680000000000000000004300000000000000EE
:105778000000000000000000000000000000000021
:1057880000000000000000004300000000000000CE
:105798000000000000000000000000000000000001
:1057A80000000000000000004300000000000000AE
:1057B80000000000000000000000000000000000E1
:1057C800000000000000000043000000000000008E
:1057D80000000000000000000000000000000000C1
:1057E800000000000000000043000000000000006E
:1057F80000000000000000000000000000000000A1
:10580800000000000000000043000000000000004D
:105818000000000000000000000000000000000080
:10582800000000000000000043000000000000002D
:105838000000000000000000000000000000000060
:1058480000000000000000003B500008D14500089F
:10585800000000006D540008385400084753000841
:1058680047530008475300084753000847530008A8
:105878004753000847530008475300084753000898
:10588800FFFFFFFFFFFFFFFFFFFFFFFFFFFF00001E
:105898000100415343494900000000000000000096
:1058A80000000000000000000000000000000000F0
:1058B8000000415343494900000000000000000077
:1058C80000000000000000000000000000000000D0
:0458D80000000000CC
:0400000508003C9D16
:00000001FF
