:020000040800F2
:1000000000C00020FD450008593E00085B3E000886
:100010005D3E00085F3E0008613E000800000000F1
:10002000000000000000000000000000633E000827
:10003000653E000800000000673E0008693E0008B9
:100040004546000845460008454600084546000864
:100050004546000845460008454600084546000854
:10006000454600086D3E0008454600084546000824
:100070004546000845460008454600084546000834
:100080004546000845460008454600084546000824
:10009000753E00084546000845460008813E0008B8
:1000A0004546000845460008454600084546000804
:1000B00045460008454600084546000845460008F4
:1000C00045460008454600084546000845460008E4
:1000D00045460008893E0008953E00084546000850
:1000E00045460008454600084546000845460008C4
:1000F00045460008454600084546000845460008B4
:1001000045460008454600084546000845460008A3
:100110004546000845460008A13E0008AD3E0008DF
:100120004546000845460008454600084546000883
:1001300000000000000000000000000000000000BF
:1001400000000000000000000000000000000000AF
:10015000000000000000000000000000000000009F
:10016000000000000000000000000000000000008F
:10017000000000000000000000000000000000007F
:10018000000000000000000000000000000000006F
:10019000000000000000000000000000000000005F
:1001A000000000000000000000000000000000004F
:1001B000000000000000000000000000000000003F
:1001C000000000000000000000000000000000002F
:1001D000000000000000000000000000000000001F
:0401E0005FF8E0F1F3
:1001E40010B5054C237833B9044B13B10448AFF36D
:1001F40000800123237010BDF801002000000000DE
:10020400F45C000808B5034B1BB103490348AFF382
:10021400008008BD00000000FC010020F45C000820
:1002240010F8012B11F8013B012A28BF9A42F7D09C
:10023400D01A7047034613F8012B002AFBD1181A71
:100244000138704738B50E4B054618784FF47A7369
:10025400B3FBF0F30B4A1068B0FBF3F000F09EF828
:10026400044658B90F2D09D8024629464FF0FF30ED
:1002740000F054F82046044B1D6038BD0120FCE713
:10028400000000203001002004000020074A08B5C7
:100294001368032043F01003136000F02DF80020CE
:1002A400FFF7D0FF03F0B4FD002008BD002002409A
:1002B400034A044B11681B780B441360704700BF5A
:1002C4003405002000000020014B1868704700BF6F
:1002D4003405002038B50446FFF7F6FF0546631CD5
:1002E4001EBF044B1B78E418FFF7EEFF431BA34229
:1002F400FAD338BD0000002007490302CA6803F49A
:10030400E06322F4E0621204120C134343F0BF636F
:1003140043F40033CB60704700ED00E0164B30B57A
:10032400DC68C4F30224C4F10703251D042B28BF91
:100334000423062D4FF0FF3598BF002405FA03F37C
:1003440088BF033C21EA0303A34005FA04F422EA2C
:100354000402002843EA0203ACBF00F16040074AEC
:100364004FEA0313DBB2ABBF00F5614000F00F00AE
:1003740080F80033135430BD00ED00E014ED00E0CC
:10038400002808DB0123420900F01F0003FA00F0F3
:10039400014B43F82200704700E100E00138B0F15E
:1003A400807F0AD2F021064B064A586082F8231057
:1003B4000020072298601A6070470120704700BF30
:1003C40010E000E000ED00E008B590F82130022BC9
:1003D40003D004238363012008BD036843491A68DA
:1003E40022F00E021A601A6822F001021A60404AD2
:1003F400934241D98B4238D014318B4237D01431D7
:100404008B4236D014318B4223D014318B4223D00B
:1004140014318B4223D0934224D002F5627293426A
:1004240023D01432934222D01432934221D0143276
:10043400934214BF4FF480334FF480532D4A5360DA
:100444004FF480730384436B002B4DD098470020F6
:10045400C2E74FF48053F1E74FF48033EEE74FF4F3
:100464008013EBE74FF08073E8E70123E6E71023FE
:10047400E4E74FF48073E1E78B422ED01E498B42B0
:100484002DD014318B422CD014318B4219D014311D
:100494008B4219D014318B4219D093421AD0174A87
:1004A40093421AD01432934219D01432934218D082
:1004B4001432934214BF4FF480334FF48053104AE4
:1004C400BDE74FF48053FAE74FF48033F7E74FF476
:1004D4008013F4E74FF08073F1E70123EFE7102373
:1004E400EDE74FF48073EAE7184675E70800024029
:1004F40080000240000402401C0002400804024044
:10050400000002402DE9F74F002216466B4F6C4B5A
:10051400DFF8B4C1DFF8B4E10C6834FA06F502D1AF
:1005240003B0BDE8F08F4FF0010808FA06F804EABA
:10053400080538EA040440F082804C68032C07D88C
:10054400013C022C00F28D80DFE804F09EA3A90098
:10055400122C00F0A18074D8112C00F09780FF2D8C
:1005640098BF82464FF00F0988BF00F1040A4FEA92
:100574008604DAF8008088BF203C09FA04FB28EAE4
:100584000B0802FA04F448EA0404CAF80040D1F85B
:1005940004A01AF0805F52D0BC6926F0030844F02E
:1005A4000104BC61BC6908F1804804F001040194B1
:1005B40008F5803806F0030B019C4FEA8B0BD8F842
:1005C400084009FA0BF924EA09093E4CA0426AD012
:1005D40004F58064A04268D004F58064A04266D02B
:1005E40004F58064A04264D004F58064A04262D023
:1005F40060450CBF0524062404FA0BF444EA0904FC
:10060400C8F808401C681AF4803F14BF2C43AC435C
:100614001C605C681AF4003F14BF2C43AC435C605C
:100624009C681AF4801F14BF2C43AC439C60DC68A4
:100634001AF4001F14BF254324EA0505DD600136C2
:100644006AE774450DD018D8DFF884904C4508D07B
:1006540009F570294C4504D0A9F580194C457FF45F
:100664007EAF8A68EAB1012A08BFC0F810804FF053
:10067400080218BFC0F8148071E7DFF858904C45A1
:10068400EFD009F58039E9E7CA6868E7CA68043237
:1006940065E7CA68083262E7CA680C325FE700227D
:1006A4005DE704225BE70024A6E70124A4E7022413
:1006B400A2E70324A0E704249EE700BF0010024041
:1006C4000004014000080140001C01400000221009
:1006D40000001210000031108368194214BF012079
:1006E400002070470AB1016170470904FBE7C36841
:1006F40001EA030221EA030141EA02410161704770
:10070400044A08B55169014202D0506103F076FBF6
:1007140008BD00BF00040140F0B5044687B010B323
:1007240090F8A93203F0FF021BB980F8A82203F065
:10073400B7FD032325466E4684F8A93255F8100BFD
:1007440001F086FC0FCD0FC62B68271D33602646AB
:1007540097E80E0056F8100B01F06AFC054620B12C
:10076400022384F8A93201254CE00146206801F0F7
:1007740079FC29464FF0010E28250846D4F804C018
:10078400CAB2944501F101011BD80023282519465A
:10079400D8B2844503F1010320D8EC4635460FCD89
:1007A400ACE80F002B68CCF8003097E80E00206806
:1007B40001F05AFC01230546E8B1022284F8A9227B
:1007C400D1E705FB0243C3E90E0083F829E083F86F
:1007D4002820DA8683F82B001864D1E705FB004251
:1007E400C2E95E1182F8691182F8680182F86B111E
:1007F400C2F88011CCE784F82400206884F8A93278
:1008040001F0F0FE284607B0F0BD38B590F8A832E4
:100814000446012B10D0012580F8A852006801F08D
:100824000EFC2946204603F06CFE206801F0D8FE39
:10083400002084F8A80238BD0220FCE710B590F827
:10084400A8220446012A0BD0012280F8241080F843
:10085400A822006801F0BEFE002084F8A80210BDA2
:100864000220FCE72DE9F04F044685B0006801F052
:10087400BBFE020409D5DFF86098DFF860882068C1
:10088400B0F844301D0400F1C180206801F0ACFED2
:1008940043050FD522682046B2F8443023F4806320
:1008A4001B041B0CA2F8443003F035FD0021204644
:1008B400FFF7C4FF206801F097FE410408D52268C1
:1008C400B2F8443023F480431B041B0CA2F84430D8
:1008D400206801F089FE820408D52268B2F8443009
:1008E40023F400531B041B0CA2F84430206801F0CD
:1008F4007BFEC3041CD522682046B2F8403023F0A6
:1009040004031B041B0CA2F84030B2F8403023F05F
:1009140008031B041B0CA2F8403003F01FFD2268DF
:10092400B2F8443023F480531B041B0CA2F8443067
:10093400206801F059FE070546D568462368064637
:1009440019461A4603F1200532F8047B954226F82D
:10095400027BF9D1B3F8402092B242F00102A3F82D
:100964004020B3F8402022F001021204120CA3F834
:100974004020B3F844205605FBD5B3F8442022F4B4
:1009840080621204120CA3F8442030F8022B21F8E0
:10099400042B8D42F9D1B3F84020204692B242F0A4
:1009A4000802A3F84020B3F8442022F400621204A1
:1009B400120CA3F84420B3F8402092B242F004028F
:1009C400A3F8402003F0BAFC206801F00DFE820574
:1009D4000BD522682046B2F8443023F400731B047C
:1009E4001B0CA2F8443003F092FC206801F0FCFDDB
:1009F400C30508D52268B2F8443023F480731B047D
:100A04001B0CA2F8443005B0BDE8F08FB0F8446088
:100A1400B1B216F00F0640F0B98011F010012DD1DB
:100A240003889BB203EA090343F400430380B0F84C
:100A3400503094F828209BB203EBC20300EB430030
:100A4400B0F80434E26BC3F3090363641344E3634F
:100A5400204603F054FC94F82430002B3FF40FAFED
:100A6400226C002A7FF40BAF94F82430216843F001
:100A74008003A1F84C3084F8242000E70588ABB249
:100A840015F4006521D0B0F8503094F868219BB279
:100A940003EBC20300EB4303B3F80C34B4F86E2148
:100AA400C3F30903C4F8843104F52C7102F090F8FF
:100AB40022682046138823F070031B051B0D43F0A6
:100AC4008003138003F00CFCD9E61F047FF5D7AE36
:100AD400038823F070031B051B0D43F08003038080
:100AE400B0F8503094F868219BB203EBC20300EBDA
:100AF4004303B3F80C34C3F30903C4F884318BB152
:100B0400D4F87C1171B1B4F86E2102F061F8D4F814
:100B14007C31D4F88421294613442046C4F87C311E
:100B240003F0E4FB2168D4F87851B1F8503001F2B5
:100B34000C409BB2CDB9C25A22F4F8421204120CF2
:100B4400C252C25A92B242F40042C2520B8823F4F7
:100B5400804323F070031B041B0C83F4405343F4C1
:100B6400004343F080030B8089E63E2D06D86A08D3
:100B7400EE0748BF0132920292B2E6E76A09ED0637
:100B840008BF02F1FF3248EA8222F5E730F8263046
:100B940019049FB240F1F880282130F8263001FB77
:100BA400064123F070031B051B0D43F0800320F85E
:100BB400263091F8743100F58065B3B9B0F850303F
:100BC40091F868219BB2063303EBC20335F8135046
:100BD400C5F30905002D00F0BB802B46B1F86E214A
:100BE400D1F87C1101F0F4FFB2E091F86B3191F887
:100BF40068C1022B40F08B80B0F8503017F4804A63
:100C0400D1F880214FEACC0B9BB207F0400E40D0C4
:100C14009B440BF1020B35F81B50C5F309059542B3
:100C240013D90023C1F8803130F82C3023F48043E9
:100C340023F070031B041B0C83F4005343F40043A0
:100C440043F0800320F82C3004E0521BC1F88021CB
:100C5400002AE9D0BEF1000F12D0282303FB06437B
:100C640093F8682130F8223023F4E04323F0700332
:100C74001B041B0C43F4004343F0C00320F8223050
:100C8400002D65D0282101FB06412B46B1F87021C7
:100C9400A6E75B44063335F81350C5F309059542BE
:100CA40012D9C1F880A130F82C3023F4804323F00A
:100CB40070031B041B0C83F4005343F4004343F000
:100CC400800320F82C3004E0521BC1F88021002A54
:100CD400E9D0BEF1000F12D1282303FB064393F899
:100CE400682130F8223023F4E04323F070031B041E
:100CF4001B0C43F4004343F0C00320F822303DB3FF
:100D0400282101FB06412B46B1F8722168E730F82F
:100D14002C3023F4E04323F070031B041B0C43F436
:100D2400004343F0C00320F82C3091F8683130F8C8
:100D34002320DB0012F4804FB0F8502092B256D03A
:100D44000232134435F81350C5F30905002D9CD124
:100D5400282171436318D3F884212A44C3F88421D9
:100D6400D3F87C212A44C3F87C21D3F880211AB11A
:100D7400D3F878319D4243D2282303FB064320460F
:100D840093F8681103F0B2FA3A067FF578AD282596
:100D9400206805FB064530F8263000F5806E9BB2CE
:100DA40003EA090343F4004320F8263095F82B3076
:100DB40095F82810022B01D1FB0539D42827B0F867
:100DC400502007FB064392B2023202EBC1013EF807
:100DD40011E0D3F840C0CEF3090EF44517D8002231
:100DE4001A64204695F8281003F089FA47E506327C
:100DF400134435F81350C5F30905002DA8D082E734
:100E040001F5B4712068214401F004FCBCE7ACEBAB
:100E14000E021A64002AE4D006FB0777D96B5A6CD9
:100E240071447244D9635A64E11901F0F3FB26E575
:100E3400B0F850204FEAC10A92B217F0400C2B6C64
:100E4400524407F4804700F0A28002323EF812C0F8
:100E54002822CCF3090C9C4528BF002302FB064240
:100E640038BFA3EB0C031364BFB2BBB9204603F035
:100E740046FA002F00F0A38095F82810226832F873
:100E8400213023F4E04323F070031B041B0C43F4D0
:100E9400404343F0800322F8213090E06FB130F8F2
:100EA400213023F4E04323F070031B041B0C43F4B0
:100EB400404343F0800320F82130282303FB0643FA
:100EC40093F84C20012A7AD15A6CD96B62449F6CF6
:100ED4005A649A6B61449742D96327D3BF1A9F64BB
:100EE40095F8297093B2002F43D1B0F8507095F85B
:100EF40028C0BFB200F2044E4FEA0C1C774402BB78
:100F04003CF8072022F4F8421204120C2CF80720B3
:100F14003CF8072092B242F400422CF80720282221
:100F240002FB0646328E01F065FB48E01FB96246BB
:100F340083F84C70D4E7002283F84C209A643A4634
:100F4400CEE73E2A0CD84FEA520ED20748BF0EF124
:100F5400010E4FEA8E2E1FFA8EFE2CF807E0DEE714
:100F64004FEA521ED20608BF0EF1FF3E48EA8E2E0B
:100F7400F1E7012FD3D1B0F8502095F828701FFA6B
:100F840082FC00F204423F016244BB52C7E70632CE
:100F94003EF81220BFB2C2F309029A4288BF6346E8
:100FA4004FF0280C0CFB064C98BF9B1ACCF8403031
:100FB400C3B9204603F0A3F9002F3FF45DAF95F8C1
:100FC4002810226832F821309BB223F4E04323F046
:100FD400400383F0300343F4004343F0800322F8DA
:100FE40021304CE46FB930F8213023F4E04323F08E
:100FF40070031B041B0C43F4404343F0800320F8AC
:101004002130282303FB064393F84C100129D6D141
:101014005F6CD96B1744D3F848C05F649F6B11446D
:10102400BC45D96326D3ACEB07029A6495F8292012
:10103400BBB2002A43D1B0F850C01FFA8CF200F2C0
:101044000C4C944495F82820120107BB3CF802701C
:1010540027F4F8473F043F0C2CF802703CF8027068
:10106400BFB247F400472CF80270282202FB064660
:10107400728E58E7BCF1000F03D1174683F84CC0B9
:10108400D4E7002267469A6483F84C20CEE73E2FCB
:101094000CD84FEA570EFF0748BF0EF1010E4FEA76
:1010A4008E2E1FFA8EFE2CF802E0DEE74FEA571E62
:1010B400FF0608BF0EF1FF3E48EA8E2EF1E7012A33
:1010C400D3D1B0F85070BAB200F20C47174495F877
:1010D40028201201BB52C8E70F8FFFFF0080FFFFDB
:1010E40011F0800F70B5054601F007004FF028019C
:1010F4001CD0012400FB011129444C700A614A7878
:101104000870CB7002B1C881022B04BF00230B719D
:1011140095F8A832012B13D00123286885F8A8324A
:1011240000F0B6FF002085F8A80270BD002601FB80
:1011340000F404F5B4712C44294484F86961DDE7B2
:101144000220F2E711F0800F10B501F00702044607
:101154004FF0280113D0012302FB011101444B700D
:101164000A7094F8A832012B13D00123206884F864
:10117400A83201F0E5F8002084F8A80210BD01FBB4
:1011840002F303F5B47101440344002083F86901B8
:10119400E6E70220F2E770B52824002601F00701F3
:1011A4004C43051985F8681104F5B4710144C5E987
:1011B4005F23C5F8846185F86961006801F02AFA43
:1011C400304670BD282301F0070103FB0101D1F86B
:1011D4008401704770B501F00705282101FB05045F
:1011E4000026C4E90F23012205FB011184F84C20D9
:1011F4000144A364666484F8292084F828500068B4
:1012040001F008FA304670BD38B5436801F00705AF
:101214009D42044628D811F0800F4FF028031AD0BD
:1012240005FB0333C11801234B7001230D708B7030
:1012340094F8A8229A4219D0206884F8A83201F0C0
:101244005EF925B9206804F52C7101F0D1F900206C
:1012540084F8A80238BD00224B4303F5B47103445B
:10126400014483F86921E0E70120F3E70220F1E774
:1012740038B5436801F00F029A42044626D811F0AB
:10128400800F01F007024FF0280115D0012302FB63
:10129400011101444B7000250A708D7094F8A83236
:1012A400012B15D00123206884F8A83201F047F9F6
:1012B400284684F8A85238BD01FB02F303F5B47143
:1012C40001440344002083F86901E4E70120F2E7C4
:1012D4000220F0E710B5282411F0800F1BBF01F0A5
:1012E400070101FB044104FB0100401808BF00F59D
:1012F400B47099B21AB90273C180002010BD0122E2
:1013040083600273F9E700002DE9F341054638B321
:101314000368DB0710D42B689F075ED42B6819077A
:1013240000F195802B685A0700F1BF80E869002816
:1013340040F02C81002029E08F4C636803F00C03FB
:10134400042B07D0636803F00C03082B0AD16368ED
:10135400DE0307D523689C03DDD56B68002BDAD147
:10136400012013E06B68B3F5803F12D1236843F486
:1013740080332360FEF7A8FF064623689803CAD487
:10138400FEF7A2FF801B6428F7D9032002B0BDE852
:10139400F0819BB9236823F480332360236823F40A
:1013A40080232360FEF790FF064623689903B2D595
:1013B400FEF78AFF801B6428F7D9E6E7B3F5A02F70
:1013C400236803D143F480232360CFE723F48033DD
:1013D4002360236823F48023CBE7674C636813F00E
:1013E4000C0F07D0636803F00C03082B10D163685B
:1013F400DA030DD423689B0702D52B69012BAFD1E7
:1014040023686A6923F0F80343EAC203236085E78B
:101414002A695A4B6AB101221A60FEF755FF064643
:1014240023689F07ECD4FEF74FFF801B0228F7D9EF
:10143400ABE71A60FEF748FF0646236898077FF576
:101444006DAFFEF741FF801B0228F6D99DE7AA691C
:10145400494E4B4BDAB101221A60FEF735FF0446C0
:10146400736A9B070DD54FF4FA52464B1B68B3FBC6
:10147400F2F3019300BF019B5A1E0192002BF9D194
:1014840050E7FEF721FF001B0228E9D97DE71A6027
:10149400FEF71AFF0446736A9F077FF543AFFEF712
:1014A40013FF001B0228F6D96FE7334CE369D80019
:1014B40024D40127E36943F08053E361E36903F033
:1014C40080530093009B304E3368D90518D5EB68E0
:1014D400012B26D1236A43F001032362FEF7F4FEB5
:1014E40041F288380646236A9B073FD5002F3FF414
:1014F4001DAFE36923F08053E36117E70027E2E7B8
:10150400336843F480733360FEF7DEFE804633684D
:10151400DA05DCD4FEF7D8FEA0EB08006428F6D97F
:1015240033E7ABB9236A41F2883823F0010323621D
:10153400236A23F004032362FEF7C6FE0646236AE9
:101544009807D3D5FEF7C0FE801B4045F7D91CE7AA
:10155400052B236A03D143F004032362BAE723F083
:1015640001032362236A23F00403B6E7FEF7ACFE0B
:10157400801B4045B7D908E70010024000004242F2
:101584008004424230010020007000402A4B5A6817
:101594001C4602F00C02082A3DD00023274E0228E4
:1015A40033602BD1FEF790FE0746236899011FD4C0
:1015B4002B6AB3F5803F05D16268A96822F4003232
:1015C4000A436260696A62680B4322F4741213432B
:1015D400636001233360FEF777FE054623689A01B2
:1015E4003FF5A8AEFEF770FE401B0228F6D9CCE604
:1015F400FEF76AFEC01B0228D7D9C6E6FEF764FED2
:10160400054623689B017FF595AEFEF75DFE401B02
:101614000228F6D9B9E601283FF4B8AE5B682A6A15
:1016240003F4803191427FF49BAE6A6A03F4701331
:1016340093423FF47FAE93E60010024060004242C2
:1016440030B5184B87B002AC03F110052246186878
:101654005968083303C2AB421446F7D140F2012360
:101664001149ADF804304B6803F00C02082A17D175
:10167400C3F3834206A80244DB0312F8102C0CD5F2
:101684004B680A48C3F34043504306AA134413F873
:10169400143CB0FBF3F007B030BD05485043FAE703
:1016A4000248F8E70C5D00080010024000127A00BE
:1016B40000093D002DE9F0410D46044610B9012012
:1016C400BDE8F081444A136803F007038B4228D332
:1016D40021688E0730D4CA0743D43F4A136803F005
:1016E4000703AB4265D822683C4D12F0040F6CD15D
:1016F400130706D56B68226923F4605343EAC203D7
:101704006B60FFF79DFF6B68354AC3F30313D35C2B
:10171400D840344B1860344B1868FEF793FD002012
:10172400CEE7136823F007030B431360136803F039
:1017340007038B42C3D1CBE7284B11F0040F1EBF24
:101744005A6842F4E0625A60080742BF5A6842F499
:1017540060525A605A68A06822F0F00202435A604C
:10176400B9E762681D4E012A33681AD113F4003FA9
:10177400A5D0736841F2883823F0030313437360E0
:10178400FEF7A2FD07467368626803F00C03B3EB2F
:10179400820FA2D0FEF798FDC01B4045F3D9032069
:1017A4008EE7022A02D113F0007FE1E713F0020F63
:1017B400DEE7136823F007032B431360136803F079
:1017C4000703AB427FF47BAF8DE76B68E16823F4DA
:1017D400E0630B436B608BE7002002400010024083
:1017E400925E00083001002004000020044B054AEA
:1017F4005B68C3F30223D35C034A1068D840704784
:1018040000100240A25E000830010020044B054A8B
:101814005B68C3F3C223D35C034A1068D8407047A3
:1018240000100240A25E00083001002003682DE988
:10183400F341D907054620D5354CE369DA0032D4A3
:101844000127E36943F08053E361E36903F08053C4
:101854000193019B2F4E3368DB0526D5236A13F4CD
:10186400407336D1236A6A6823F4407313432362B6
:101874001FB1E36923F08053E3612868830706D529
:101884002349AB684A6822F440421A434A6010F084
:1018940010001BD01E4A69695368002023F480039A
:1018A4000B43536012E00027D4E7336843F480739A
:1018B4003360FEF709FD80463368D805CED4FEF7C1
:1018C40003FDA0EB08006428F6D9032002B0BDE8AC
:1018D400F0816A6802F440729A42C3D001200E4A31
:1018E400236A1060002023F4407110602162D9073C
:1018F400B8D5FEF7E9FC41F288380646236A9A0710
:10190400B0D4FEF7E1FC801B4045F7D9DDE700BF0A
:1019140000100240007000404004424290F83D3004
:10192400012B28D1022380F83D300368DA6842F0A5
:101934000102DA60114A934212D002F50062934226
:101944000ED0B3F1804F0BD0A2F59832934207D05A
:1019540002F58062934203D002F58062934204D17F
:101964009A6802F00702062A03D01A6842F00102BC
:101974001A60002070470120704700BF002C01400E
:101984007047704770477047036810B51A6904467A
:1019940091070ED5DA6892070BD56FF002021A612F
:1019A400012202779B699B0777D0FFF7EAFF0023A8
:1019B400237723681A69500710D5DA6851070DD5C3
:1019C4006FF004021A61022222779B69204613F405
:1019D400407F68D0FFF7D5FF0023237723681A6977
:1019E40012070FD5DA6810070CD56FF008021A61D8
:1019F40004222277DB69204699075AD0FFF7C1FFFA
:101A04000023237723681A69D20610D5DA68D00632
:101A14000DD56FF010021A6108222277DB69204687
:101A240013F4407F4BD0FFF7ACFF002323772368E8
:101A34001A69D10708D5DA68D20705D56FF0010213
:101A440020461A6102F0C2F923681A69100608D503
:101A5400DA68110605D56FF0800220461A6100F09D
:101A6400E4F823681A69520608D5DA68500605D5E1
:101A74006FF0400220461A61FFF785FF23681A6958
:101A8400910622D5DA6892061FD56FF0200220460F
:101A9400BDE810401A6100F0C7B8FFF771FF204697
:101AA400FFF770FF83E7FFF76BFF2046FFF76AFF3E
:101AB40092E7FFF765FF2046FFF764FFA0E7FFF713
:101AC4005FFF2046FFF75EFFAFE710BD244A0368BF
:101AD400904212D002F5006290420ED0B0F1804FD5
:101AE4000BD0A2F59832904207D002F58062904262
:101AF40003D002F5806290421DD14A6823F070033E
:101B04001343174A904212D002F5006290420ED05D
:101B1400B0F1804F0BD0A2F59832904207D002F575
:101B24008062904203D002F58062904203D1CA6879
:101B340023F4407313434A6923F08003134303607F
:101B44008B68C3620B688362054B984203D003F52C
:101B54000063984201D10B69036301234361704719
:101B6400002C014010B5044630B390F83D3003F02A
:101B7400FF021BB980F83C2002F04EFA02232068D1
:101B840084F83D30211DFFF7A1FF0123002084F8D4
:101B9400463084F83E3084F83F3084F8403084F88E
:101BA400413084F8423084F8433084F8443084F877
:101BB400453084F83D3010BD0120FCE730B590F885
:101BC4003C300246012B4FF002002AD0136882F801
:101BD4003D005C680D6824F070042C4398685C60D8
:101BE400104CA34212D004F50064A3420ED0B3F10A
:101BF400804F0BD0A4F59834A34207D004F5806439
:101C0400A34203D004F58064A34204D1496820F0C0
:101C14008000014399600123002082F83D3082F85E
:101C24003C0030BD002C0140704770470368DA68FF
:101C340022F49072DA605A6922F001025A61202378
:101C440080F83A307047000010B504460368C16854
:101C54001A6922F440520A431A6182680069D968F9
:101C64000243606921F4B05121F00C0102430A439C
:101C7400DA605A69A16922F440720A435A610E4A31
:101C8400934215D1FFF7C2FD1923434362682068CC
:101C94009200B3FBF2F36422B3FBF2F102FB1133C3
:101CA4001B013233B3FBF2F303EB0113836010BD6A
:101CB400FFF79CFDE8E700BF00380140F8B5044693
:101CC4000E4617461D462268136836EA030301D1FF
:101CD400002014E06B1CF7D095B923680320DA6860
:101CE40022F4D072DA605A6922F001025A61202388
:101CF40084F8393084F83A30002384F83830F8BD59
:101D0400FEF7E2FAC01B8542DDD2E6E710B50446D1
:101D140040B390F8393003F0FF021BB980F8382043
:101D240002F0E2F92423226884F83930D36820468B
:101D340023F40053D360FFF787FF236800201A6958
:101D440022F490421A615A6922F02A025A61DA682E
:101D540042F40052DA602023E06384F8393084F8D6
:101D64003A3010BD0120FCE72DE9F843994690F87C
:101D740039300446202B0E46174648D1002944D05A
:101D8400002A42D090F83830012B40D0012300259E
:101D940080F838302123C56380F83930FEF794FA8F
:101DA400A3688046B3F5805FA784E78403D12369E1
:101DB4000BB935461E46002384F83830E38C9BB2B9
:101DC40053B94B46424640212046FFF777FF50B9AE
:101DD400202384F8393007E04B46424680212046D0
:101DE400FFF76CFF10B10320BDE8F88322684EB9F9
:101DF40035F8023BC3F308035360E18C013989B21F
:101E0400E184DBE716F8013BF6E70120ECE702206A
:101E1400EAE790F83A30202B20D1E9B1E2B190F80A
:101E24003830012B1AD0C285828500232222C36355
:101E340080F83A20026880F838308162D168184608
:101E440041F48071D160516941F001015161D1685F
:101E540041F02001D1607047012070470220704793
:101E6400704710B590F83A30222B33D18168836AD9
:101E7400B1F5805F026820D1016909BB5268C2F3E1
:101E8400080223F8022BC48D8362013CA4B2C485EA
:101E94008CB90368DA6822F02002DA60DA6822F486
:101EA4008072DA605A6922F001025A61202380F8B4
:101EB4003A3001F05FFF00200DE039B9016929B91A
:101EC4005268D2B21A70836A0133DCE7526802F0B6
:101ED4007F02F7E7022010BD70470000036870B569
:101EE4001A6804461607D9685D6907D196065CD559
:101EF4008D065AD5BDE87040FFF7B3BF05F0010069
:101F040001F49075054350D0D60705D5CD0542BFE1
:101F1400E36B43F00103E363530704D518B1E36BA8
:101F240043F00203E363960704D518B1E36B43F06F
:101F34000403E363150707D501F0200303431EBF21
:101F4400E36B43F00803E363E36B4BB3900604D500
:101F5400890602D52046FFF784FF236820465B6983
:101F6400E56B03F0400305F008051D4319D0FFF7A6
:101F74005DFE23685A6952060FD55A69606B22F0D8
:101F840040025A6148B1254B4363FEF71DFA38B14C
:101F9400606BBDE87040436B18472046FFF79CFF19
:101FA40070BDFFF799FFE563FAE7160626D50D061F
:101FB40024D594F83920212AF2D1A168226AB1F5F6
:101FC400805F16D12169A1B932F8021BC1F308015F
:101FD40059602262E28C013A92B2E284002ADFD193
:101FE400DA6822F08002DA60DA6842F04002DA60ED
:101FF400D6E7511C216212785A60EBE75006CFD520
:102004004A06CDD5DA68204622F04002DA60202361
:1020140084F83930FFF724FFC2E700BF2520000809
:1020240008B50023406AC385C384FFF755FF08BD84
:1020340084B001A880E80E0004B000207047034675
:102044004FF43F420020A3F84400A3F84020704717
:10205400B0F8403023F47C535B045B0CA0F84030B0
:10206400002070470020704784B010B5044603A8D0
:1020740080E80E0000200123A4F84030A4F84000BA
:10208400A4F84400A4F85000BDE8104004B0704720
:10209400F0B50D78034630F82520C87822F4EC42D8
:1020A40022F070021204120C03284FD8DFE800F06B
:1020B400024B494742F4007248F28004224323F859
:1020C40025200E789B4D33F8262092B22A403243C5
:1020D400224323F826200C7B0A78002C40F08980C8
:1020E400CC884E786408640003EB021286B3B3F81C
:1020F4005060B6B23244A2F800440C7833F824207D
:10210400520609D533F8242092B22A4042F4004200
:1021140042F0C00223F82420CA780C78012A33F84C
:102124002420854992B202EA010218BF82F02002FB
:1021340042F4004242F0800223F82420F0BD42F42D
:10214400C0620020B8E742F48062FAE70120B3E7F6
:10215400B3F850500E69ADB22A44A2F808440A7884
:10216400B3F8504003EB0212A4B202F20C427EBB5D
:10217400155B25F4F8452D042D0C1553155B6FEAFA
:1021840045456FEA5545ADB215530C7833F8242014
:1021940055040DD533F8242022F4E04222F07002D5
:1021A4001204120C42F4404242F0800223F824202C
:1021B400097833F8212022F4804222F070021204BC
:1021C400120C82F4405242F4004242F0800271E068
:1021D4003E2E05D87508F70748BF0135AD02D2E792
:1021E4007709564DF60608BF07F1FF3745EA8725FC
:1021F400C9E733F82240A4B22C4044F4014444F02B
:10220400800423F822400A780C89B3F8506003EB69
:1022140002126408B6B202F58062640094530A782C
:102224004C89B3F8506003EB0212640802F5816232
:102234006400B6B294534A780C78002A3DD133F83E
:102244002420520409D533F8242092B22A4042F4BF
:10225400404242F0800223F824200C7833F82420F2
:1022640057060DD533F8242022F4E04222F0700200
:102274001204120C42F4004242F0C00223F824205B
:1022840048F280040D7833F8252022F4804222F0AD
:1022940070021204120C82F44052224323F82520C7
:1022A400097833F8212022F4E04222F0400212049B
:1022B400120C224323F8212040E733F8242056044B
:1022C40009D533F8242092B22A4042F4404242F025
:1022D400800223F824200C7833F8242052060DD5EC
:1022E40033F8242022F4E04222F070021204120C8B
:1022F40042F4004242F0C00223F82420CA780C7849
:10230400012A33F824200C4D92B202EA050218BFC8
:1023140082F0200242F4004242F0800223F824209A
:10232400097833F8212022F4804222F0700212044A
:10233400120C48E78F8FFFFFBF8FFFFF0080FFFF66
:1023440010B50C7B4B780A78002C3DD113B330F8D0
:1023540022305C060DD530F8223023F4E04323F01C
:1023640070031B041B0C43F4004343F0C00320F828
:1023740022300A7830F8223023F4E04323F040037B
:102384001B041B0C43F4004343F0800320F8223069
:10239400002010BD30F822305B040DD530F8223017
:1023A40023F4E04323F070031B041B0C43F4404369
:1023B40043F0800320F822300A7830F8223023F4E6
:1023C400804323F07003DBE7002B4ED130F822303A
:1023D4005C040DD530F8223023F4E04323F070037D
:1023E4001B041B0C43F4404343F0800320F82230C9
:1023F4000A7830F822305B060DD530F8223023F409
:10240400E04323F070031B041B0C43F4004343F02C
:10241400C00320F822300A7830F8223023F4E04355
:1024240023F070031B041B0C43F4004343F0C0036C
:1024340020F8223048F280020C7830F8243023F45B
:10244400804323F070031B041B0C134320F8243037
:10245400097830F8213023F4E04323F040031B04CF
:102464001B0C134320F8213092E730F822305C042F
:102474000DD530F8223023F4E04323F070031B041D
:102484001B0C43F4404343F0800320F822300A78C5
:1024940030F822305B060DD530F8223023F4E043C7
:1024A40023F070031B041B0C43F4004343F0C003EC
:1024B40020F822300A7830F8223023F4E04323F065
:1024C40070031B041B0C43F4404343F0800320F8C7
:1024D400223048F280020C7830F8243023F4E043B0
:1024E40023F040031B041B0C134320F82430097809
:1024F40030F8213023F4804323F07003AFE74B78A6
:102504000A788BB130F8223023F4E04323F04003FF
:102514001B041B0C83F0100343F4004343F08003BB
:1025240020F822300020704730F8223023F4804312
:1025340023F070031B041B0C83F48053ECE70B7B28
:1025440043BB4B780A783BB330F822305B060DD599
:1025540030F8223023F4E04323F070031B041B0CF7
:1025640043F4004343F0C00320F82230CB78012B1E
:1025740010D00A7830F8223023F4E04323F04003EB
:102584001B041B0C83F0200343F4004343F080033B
:1025940020F822300020704730F822305B040DD53B
:1025A40030F8223023F4E04323F070031B041B0CA7
:1025B40043F4404343F0800320F822300A7830F893
:1025C400223023F4804323F070031B041B0C83F498
:1025D4004053D9E711B98023A0F84C30002070474C
:1025E4000020704700207047B0F8440080B2704764
:1025F4000020704700EB4202013302F580625B0861
:1026040002EB83039A4200D1704731F8020B22F89F
:10261400040BF7E7F8B50D464978044601292A7BEF
:1026240040F0A181D5F810C0AE696969664528BF3C
:10263400664602BBB6B2EA883346FFF7DBFFB4F85E
:102644005020297890B204F20442090102448E52C7
:102654002A7834F8223023F4E04323F040031B04A7
:102664001B0C83F03003002043F4004343F0800349
:1026740024F82230F8BDEB782F78022B40F0388113
:102684002B6A30F827209C4580F01A8122F4E0421E
:1026940022F070021204120C42F4014242F0800251
:1026A40020F827202A789B1B30F822002B6210F098
:1026B400400FB3B2687800F08380002852D1B4F898
:1026C400500004F20C4780B238441201002E36D177
:1026D400875A27F4F8473F043F0C8752875A6FEA1A
:1026E40047476FEA5747BFB2875220466A89FFF7C8
:1026F40081FF2A6A2B6969699A428ABF931B002366
:102704003246687831442B62696193B200284BD118
:10271400B4F850002E7880B204F2044736013844ED
:102724005ABB325A22F4F8421204120C3252325A70
:102734006FEA42426FEA524292B2325226E03E2E91
:1027440006D8770816F0010F18BF0137BF02CAE791
:102754004FEA561CF706A34F08BF0CF1FF3C47EAAB
:102764008C27C0E70128C0D1B4F85000120187B209
:1027740004F20C4038448352B7E73E2A0BD857087A
:10278400D20748BF0137BF02BFB237522A89204659
:10279400FFF730FF5CE75709D206924A08BF07F1FA
:1027A400FF3742EA8722C7E70128EFD1B4F8502067
:1027B400287896B204F20442000132448352E5E7D9
:1027C400002852D1B4F8500004F2044780B23844CF
:1027D4001201002E36D1875A27F4F8473F043F0CE4
:1027E4008752875A6FEA47476FEA5747BFB2875203
:1027F40020462A89FFF7FEFE2A6A2B6969699A42F4
:102804008ABF931B00233246687831442B62696186
:1028140093B2002848D1B4F850002E7880B204F264
:102824000C47360138445ABB325A22F4F842120497
:10283400120C3252325A6FEA42426FEA524292B258
:10284400325226E03E2E06D8770816F0010F18BF44
:102854000137BF02CAE74FEA561CF706614F08BFAB
:102864000CF1FF3C47EA8C27C0E70128C0D1B4F83B
:102874005000120187B204F2044038448352B7E78F
:102884003E2A08D85708D20748BF0137BF02BFB253
:1028940037526A897BE75709D206524A08BF07F1C3
:1028A400FF3742EA8722CAE70128F2D1B4F8502060
:1028B400287896B204F20C42000132448352E8E7CD
:1028C40022F4E24222F070021204120C42F400429A
:1028D40042F0800220F82720B0F850202E7897B2DA
:1028E40000F204423A4436019BB2B3522A894FE7BC
:1028F40030F82720B3B212F0400FB0F850204FEA5E
:10290400071790B215BF04F20C4204F204421218E5
:10291400121815BFD353D3536A892A892046FFF767
:1029240069FE6B782A7873B934F8223023F4E043D3
:1029340023F070031B041B0C43F4004343F0C00357
:1029440024F8223084E6012B7FF482AE34F822305E
:1029540023F4E04323F070031B041B0C43F44043B3
:1029640043F08003ECE7002A3ED1AB6929698B422E
:1029740084BF5A1A0B46B0F850102878AA618AB25C
:1029840004F20C41000111446BB9435A23F4F84397
:102994001B041B0C4352435A6FEA43436FEA5343ED
:1029A4009BB2435208E03E2B12D85A08DF0748BFB7
:1029B4000132920292B242522A7834F8223023F43D
:1029C400804323F070031B041B0C83F440534AE63A
:1029D4005A09DE06034B08BF02F1FF3243EA8223A1
:1029E400DEE700BF0080FFFFEB78022B7ED1B9B990
:1029F400B0F85020297893B200F204422869090102
:102A04001A44002844D18B5A23F4F8431B041B0CAA
:102A14008B528B5A6FEA43436FEA53439BB28B52F8
:102A24006A782B78002A55D1B4F8501028698AB2F4
:102A340004F20C4111441B0100283AD1CA5A22F471
:102A4400F8421204120CCA52CA5A6FEA42426FEA9E
:102A5400524292B2CA52EB69002BADD044F2400309
:102A64002A7834F8221003EA01008B4301D00028AD
:102A7400A2D134F8223023F4E04323F070031B0482
:102A84001B0C43F4004343F0C00324F8223093E7C3
:102A94003E2805D84308C00748BF01339B02BDE761
:102AA40046094A4BC70608BF06F1FF3643EA8623A8
:102AB400B4E73E2805D84208C00748BF0132920255
:102AC400C7E74609414AC70608BF06F1FF3642EA8E
:102AD4008622BEE7012ABED1B4F850201B0191B270
:102AE40004F20C420A44298AD152B4E7012B6AD178
:102AF400AB692A69934294BF0020981AA86188BFE1
:102B04001346A9B9B4F8501028788AB204F20441E3
:102B14000001114433BB425A22F4F8421204120C4D
:102B24004252425A6FEA42426FEA524292B24252CF
:102B340069782A78002939D1B4F85000120181B299
:102B440004F20C400844F3B9835A23F4F8431B04F9
:102B54001B0C8352835A6FEA43436FEA53439BB27D
:102B6400835229E73E2B05D85A08DE0748BF0132B5
:102B74009202DBE75E09154ADF0608BF06F1FF365D
:102B840042EA8622D2E73E2B07D85908DE0748BF1F
:102B94000131890289B281520EE75909DB060B4BD8
:102BA40008BF01F1FF3143EA8123D8E701297FF40B
:102BB40003AFB4F85010120188B204F20C4101447E
:102BC4009BB28B52F8E6012054E500BF0080FFFF62
:102BD40000EB4202F0B502F580625D080C46174630
:102BE4002E46023436B9DB0744BF32F8253001F8EB
:102BF4001530F0BD37F8040B013E80B204F8020C26
:102C0400000A04F8010CECE7D0F8BC3210B56BB143
:102C1400D0F8B84294F80002FF2807D09B682146F8
:102C240094F801229847FF2384F80032002010BD55
:102C3400432303800048704740000020432303805F
:102C440000487047840000204323038000487047F5
:102C5400D40000200A23038000487047C8000020E5
:102C640038B50446D0F8B85201F042FCD4F8B83272
:102C7400C5F80C024BB1D4F8BC32D5F80402DB68B9
:102C840005F503719847002038BD0220FCE7D0F811
:102C9400B822F8B5D2B1142707FB0107FB698BB141
:102CA4002826D0F8C04206FB0145AD6BB3FBF5F412
:102CB40005FB143434B923462246FC6101F0FCFBC5
:102CC4002046F8BD0020C2F81402FAE70220F8E713
:102CD4002DE9F7434FF000080A78054612F0600426
:102CE4000E46D0F8B8728DF80580ADF8068028D06D
:102CF400202C42D1CC884B78E4B1120611D5D0F8FF
:102D0400BC223946D2F8089018462246C8473946AC
:102D14002846F28800F04BFC4446204603B0BDE848
:102D2400F0832246394687F8003287F8014200F0E2
:102D340053FCF1E7D0F8BC22184695682246A84710
:102D4400EBE74B780A2B0CD00B2B12D0ABB990F8D5
:102D54009C32032B11D102220DF1060100F027FC55
:102D6400DBE790F89C32032B07D101220DF105011A
:102D7400F4E790F89C32032BCFD03146284600F07C
:102D8400EFFB0224C9E738B504460025812101F090
:102D940049FB01212046E56201F044FB82212046E3
:102DA400C4F86C5101F03EFBD4F8B83225644BB141
:102DB400D4F8BC325B689847D4F8B80201F0A0FBA1
:102DC400C4F8B852002038BD2DE9F041037C044614
:102DD400BBBB4FF4007302228121012501F012FBD9
:102DE4004FF40073E562012729460222204601F0D0
:102DF40009FB082303228221C4F86C51204601F008
:102E040001FB4FF40770276401F076FB0546C4F814
:102E1400B80240B34FF00008D4F8BC321B6898479E
:102E2400C5F81482C5F81882267C9EB94FF4007345
:102E340039462046D5F8042201F04CFB3046BDE863
:102E4400F081012540230222812101F0DBFA402395
:102E5400E562C8E7402339462046D5F8042201F04C
:102E640039FB4646EAE73E46E8E719B1C0F8BC122A
:102E74000020704702207047D0F8B8320020C3F811
:102E84000812C3F810227047D0F8B8320020C3F8F3
:102E940004127047D0F8B82210B582B1D2F81442A7
:102EA400012374B9C2F81432D2F8103281210363B9
:102EB400D2F808229BB201F0FFFA204610BD02208E
:102EC400FCE71846FAE7D0F8B82210B582B1047CC2
:102ED400D2F8042234B94FF40073012101F0FAFA54
:102EE400204610BD4023012101F0F4FA0024F7E745
:102EF4000224F5E708B580B1D0F8B43213B1002349
:102F0400C0F8B43209B1C0F8B0120123027080F8DD
:102F14009C3201F027FA002008BD0220FCE719B119
:102F2400C0F8B412002070470220704708B501F0C1
:102F34005BFA002008BD08B5D0F8B4320BB9022002
:102F440008BD1B6898470028FAD0F8E708B5D0F800
:102F5400B4325B689847002008BD38B500F52A757F
:102F64000446284600F0E8FA012394F8A812C4F8AD
:102F74009432B4F8AE32C4F8983201F01F03012B36
:102F840008D0022B0BD07BB92946204600F0FCF870
:102F9400002038BD2946204600F020FAF8E72946EB
:102FA400204600F03FFAF3E7204601F0800101F0EB
:102FB40047FAEDE770B5044616460D4639BBD0F81E
:102FC4009432032B1CD1D0E9581291420BD9891A9F
:102FD4008A42C0F860118CBF8AB292B2314600F0C6
:102FE40008FB284670BDD0F8B4321B6923B190F8B1
:102FF4009C22032A00D19847204600F002FBF0E708
:10300400052BEED1C4F8941201F01AFAE9E7D0F8CE
:10301400B4329B6933B190F89C22032A02D19847B9
:103024000025DEE70225DCE7F8B5044617460D4621
:10303400002947D1D0F89432022B3CD1D0E908635F
:103044009E4214D9F31A394603629AB200F0BCFACC
:103054002B462A462946204601F03CFA94F8A03231
:10306400012B02D1002384F8A0322846F8BDC2699E
:10307400B2FBF3F603FB16265EB9934209D8D0F8E7
:1030840098329A4205D20A4600F09EFAC4F8985241
:10309400DEE7D4F8B432DB682BB194F89C22032A1F
:1030A40001D1204698478021204601F0C9F92046E5
:1030B40000F0B2FAD2E733F00403CFD1802101F05B
:1030C400BFF9CBE7D0F8B4325B6933B190F89C22F6
:1030D400032A02D198470025C7E70225C5E7002245
:1030E40070B50446012540261146402301F08AF9B3
:1030F4003346802100222046C4F85851C4F8646144
:1031040001F080F90021D4F8B832A561666284F830
:103114009C52C4F894126160C4F8A41223B1D4F888
:10312400B43220465B689847002070BD01740020CB
:10313400704790F89C3280F89D32042380F89C32CA
:103144000020704790F89C32042B04BF90F89D3205
:1031540080F89C320020704708B590F89C22032A1E
:1031640004D1D0F8B432DB6903B19847002008BD1C
:1031740010B50446802101F063F92046BDE81040F3
:10318400002101F05DB9000037B50B78044603F067
:103194006003202B0D4612D0402B10D0002B51D1B0
:1031A4004B78092B4ED8DFE813F0EE000A014D00EE
:1031B40003014D00870013004D00D600A300D4F88E
:1031C400B432294620469B689847002003B030BD9E
:1031D4000023ADF806304B881A0A013A062A31D882
:1031E400DFE802F00416233030485200D0F8B03241
:1031F4001B68207C0DF106019847BDF80620002AC3
:1032040056D0EB88002B4AD1204600F0FAF9DCE7CF
:10321400027CD0F8B43232B99B6A0DF106009847AB
:1032240002234370E9E7DB6AF7E7DBB2052B09D831
:10323400DFE803F0030C1014181CD0F8B0325B68FC
:10324400002BD6D12046FFF793FFBEE7D0F8B0326B
:103254009B68F5E7D0F8B032DB68F1E7D0F8B0321C
:103264001B69EDE7D0F8B0325B69E9E7D0F8B0321A
:103274009B69E5E7037C002BE4D1D0F8B4320DF16F
:1032840006005B6B9847B8E7037C002BDAD1D0F8D3
:10329400B4320DF106001B6B98470723C1E79A422D
:1032A40028BF1A4601462046ADF8062000F07FF9F3
:1032B400EB88002B89D1A7E78B88002BC2D1CB8860
:1032C400002BBFD14D887F2DBCD890F89C32032BA6
:1032D400B8D0E9B280F89E1201F0E0F8204600F080
:1032E40090F91DB1022384F89C326EE70123FAE7BA
:1032F4008978394D01292970A4D890F89C32022B81
:1033040008D0032B15D0FFF733FF20462978FFF7A9
:103314001DFE5AE700293FF477AF012103234160E2
:1033240080F89C322046FFF706FE02287FF46CAF3B
:1033340088E731B90223416080F89C32FFF706FE2A
:1033440062E7416801293FF45FAFC9B2FFF7FEFDB0
:1033540029786160E6E7CA88012A7FF473AF90F8A0
:103364009C32022B0AD8002B3FF46CAF0146002399
:1033740041F8083F204600F01AF926E7032B7FF4B2
:1033840061AF011DF6E790F89C32013B022B3FF63A
:1033940059AFCB88022B7FF455AF0123C360D0F81B
:1033A400A4320BB10323C360022204F10C01E1E750
:1033B4004B88012B7FF409AFC4F8A43224E790F8BA
:1033C4009C32013B022B3FF63DAF4B88012B7FF42F
:1033D400FCAE0023F0E700BF1402002038B50B78E0
:1033E400044603F06002402A0D4601D05B0615D462
:1033F40094F89C32013B022B10D82B79012B0DD869
:10340400D4F8B43229469B6820469847EB881BB908
:1034140010B9204600F0F5F8002038BD2046FFF72B
:10342400A7FEF9E738B50A78044602F06002202ABC
:103434000B4627D0402A25D092BB5A788D88012A82
:1034440009793DD0032A25D052BB90F89C32022B37
:103454004DD0032B24D1142201F00F0315F0800F5B
:1034640002FB030354D09B69D3B1142301F07F05FD
:1034740005FB0333C51811F07F0355D12B600222DD
:10348400294641E0D4F8B422194620469268904770
:10349400002038BD90F89C22022A1FD0032A03D0B2
:1034A4002046FFF765FEF3E75A882AB94A0603D097
:1034B400DB880BB900F0C4FF204600F0A2F8E7E770
:1034C40090F89C22022A09D0032AE9D15B88002BB8
:1034D400DED14D06F0D000F0C1FFEDE74B06DFD0A2
:1034E40000F0AEFF8021204600F0AAFFD0E74A0694
:1034F400D6D12B064FF000034FF002024CBF00F16F
:10350400140100F5AA710B60204600F050F8BFE7E3
:10351400D3F85831002BC3D0142301F07F0503FBEB
:10352400050505F5AA75A6E7204600F0A5FF08B134
:103534000123A3E72860A2E70B7803704B7843705C
:10354400CA788B7803EB022343804A790B7903EB27
:1035540002238380CA798B7903EB0223C3807047EB
:1035640010B50446802100F06BFF2046BDE81040F2
:10357400002100F065BF30B588B1002501382B4625
:103584000135445D002CFAD1DBB201335B001380BA
:103594000B7003234B70022310F8015F05B930BD93
:1035A4005A1CCD54D2B20233DBB28C54F4E7134626
:1035B400022210B5C0E90733C0F894220A4600215C
:1035C40000F07AFF002010BD08B513460A4600211A
:1035D40000F072FF002008BD1346032210B5C0E9B5
:1035E4005733C0F894220A46002100F073FF0020EC
:1035F40010BD08B513460A46002100F06BFF0020F9
:1036040008BD08B50423C0F8943200231A461946AD
:1036140000F052FF002008BD08B50523C0F894321D
:1036240000231A46194600F055FF002008BD00008B
:1036340010222DE9F04788B00DEB0200002101F0C3
:103644002FF84F4B4F4F9A69DFF8448142F0100234
:103654009A619A694C4D02F010020092009A9A699C
:10366400384642F020029A619A694FF4425102F0BE
:1036740020020192019A9A69002442F004029A619C
:103684009A69022602F004020292029A9A694FF0A1
:10369400010942F008029A619B69002203F00803C1
:1036A4000393039BFDF71EF8404600224FF4F0718C
:1036B400FDF718F8284600224FF4E261FDF712F8EE
:1036C400012238464FF40061FDF70CF84FF46253C1
:1036D400384604A91127CDE90439CDE90646FCF79B
:1036E40011FF4FF49073404604A94FF0030ACDE94B
:1036F4000437CDE90646FCF705FFC023404604A97C
:10370400CDE904370694CDF81CA0FCF7FBFE4FF47A
:103714008263284604A9CDE90437CDE9064AFCF7BB
:10372400F1FE2822194B284604A9CDE90423069466
:10373400FCF7E8FE4023284604A9CDE904340694A6
:10374400FCF7E0FE4FF44073284604A9CDE90439A0
:10375400CDE90646FCF7D6FE224621460920FCF7B1
:10376400DDFD0920FCF70CFE224621461720FCF75C
:10377400D5FD1720FCF704FE08B0BDE8F08700BFB4
:103784000010024000100140000C01400000211014
:103794000008014010B514464FF0FF3392B20248BE
:1037A400FEF7E2FA204610BD0C06002070B5102684
:1037B40096B0324600210FA800F072FF14220021B7
:1037C40001A800F06DFF182200210DEB020000F0AB
:1037D40067FF022501224FF480330024CDE90C2336
:1037E400CDE913534FF4E0130CA8109215930E94E3
:1037F400FDF78AFD0F23CDE901354FF48063294697
:1038040001A8CDE904340394FDF754FF06A80696F5
:103814000B94FEF70BF816B070BD0000F8B5072145
:103824000746174800F026FD4FF0FF3307221449DE
:103834001448FEF799FA144800F0C0FF0025134C11
:10384400134E2278012A02BF336801333360114BCF
:103854001D603368BB4212DB012280210E48FCF755
:1038640041FF0E4800F0AAFF4FF4FA60FCF732FD66
:103874002A4680210848FCF735FF35602570F8BDDD
:103884001D5D00080C060020255D00087A0200205A
:10389400EC0200200403002000100140365D000803
:1038A4007FB52B4A0646134651781578294C0D44AA
:1038B400917820460D4451792944957A2944D57B41
:1038C4000D4491790D44D17A2944157C294413F887
:1038D400145F029302F10F030D44019302F10A03F2
:1038E4001D490093EDB2531D00F070FF6D42214657
:1038F4001A4800F0DDFEA572F6B9194B1B78012BAE
:103904000CD12046FCF796FC4FF0FF33214682B2DF
:10391400144804B0BDE87040FEF726BA124B1B7879
:10392400012B13D12046FCF785FC81B2204604B05C
:10393400BDE8704000F09EBC012E07D12046FCF784
:1039440079FC81B2204600F095FCDAE704B070BD42
:1039540017010020E00200204F5D00085A5D0008B6
:10396400DF0200200C060020150200200022264B56
:1039740070B5402125481A60FCF7AEFE01280CBF43
:10398400234A244A136801331360234A13681646F2
:10399400032B36DD1E4D2A68032A14DD4FF4005133
:1039A4001E480122FCF79EFE1D491E48FCF738FC08
:1039B40048B91D491B4800F029FF0120FFF770FF9B
:1039C4001A4800F0FBFE134C2268032A14DD4FF45E
:1039D400005112480022FCF785FE13491148FCF7F8
:1039E4001FFC48B90E490F4800F010FF0120FFF7F3
:1039F40057FF0F4800F0E2FE002333602B60236082
:103A040070BD01331360FBE7FC020020000C014091
:103A140000030020F4020020F802002000100140FE
:103A24006A5D00081C0100206D5D0008705D0008DF
:103A3400825D000870B50446164800F0BFFE1649C2
:103A4400164800F0E3FE0020FFF72AFF0025144E7D
:103A54006400EBB2A34205F1010508DB11490F48EC
:103A640000F0D4FEBDE870400F4800F0A7BE4FF44C
:103A740000613046FCF73BFE4FF4FA70FCF72AFC79
:103A840030464FF40061FCF732FE4FF4FA70FCF755
:103A940021FCDEE7945D00086A5D00082601002031
:103AA400001001406D5D0008A65D000838B5474967
:103AB4000546FCF7B5FB044660B9454800F07EFEB8
:103AC4002046444900F0AAFE0122434B1A70434B9E
:103AD4001C6038BD28464249FCF7A2FB044658B98D
:103AE400404800F06BFE20463A4900F097FE20461D
:103AF400BDE83840FFF7D4BE28463B49FCF790FBAD
:103B0400044608BB394800F059FE3249204600F00B
:103B140085FE22464FF480713548FCF7E3FD2246CA
:103B24004FF400713248FCF7DDFD4FF47A70FCF776
:103B3400D1FB3049304800F069FE01224FF4805136
:103B44002E48FCF7CFFDD2E728462D49FCF768FB49
:103B54000446E0B92B4800F031FE1E49204600F02F
:103B64005DFE01224FF480712148FCF7BBFD012268
:103B74004FF400711E48FCF7B5FD4FF47A70FCF762
:103B8400A9FB21491C4800F041FE2246D6E72846FD
:103B94001E49FCF745FB044600289AD11C4800F056
:103BA4000DFE20460B4900F039FE054620B9BDE85C
:103BB4003840184800F002BE0146174800F078FD6E
:103BC400284600F03EFDFFF735FF90E7BC5D000896
:103BD400BF5D00086E5D00087A020020EC02002040
:103BE400D45D0008D75D0008E45D0008E75D0008C7
:103BF400000C01406D5D000821010020001001400F
:103C0400F55D0008F85D00086A5D0008045E0008C0
:103C1400075E0008175E00082E5E00082DE9F041DB
:103C2400FCF734FBFFF7C2FDFFF702FD00F0ACF92F
:103C340000F022FA00F03CFA00F0CAF900F0B6FAFB
:103C4400002225201146FCF769FB2520FCF798FB90
:103C5400002236201146FCF761FB3620FCF790FB6E
:103C6400002226201146FCF759FB2620FCF788FB8E
:103C740001222F492F48FEF7CCF82F48FDF74EFEBE
:103C84002E48FDF74BFE01224FF480712C48FCF7BF
:103C940029FD2C4D01224FF400712948FCF722FD27
:103CA400294800F08BFD2F46284E2B78012B13D189
:103CB4002649274800F0FCFC33785BB1254930469F
:103CC40000F0ACFD04460146234800F0F1FC204618
:103CD400FFF7ECFE00233B70DFF8948098F8003087
:103CE400012B17D11D4C1E48214600F0E1FC23781E
:103CF4005BB12046174900F091FD04460146164881
:103D040000F0D6FC2046FFF7D1FE0023154A88F8C0
:103D140000301370144B1B68B32B02DD0320FFF734
:103D24007DFD124B1B68012BBFD1FFF71FFEBCE7C3
:103D3400380500200C0600203C05002084050020E6
:103D4400000C0140150200203A5E00081602002013
:103D5400445E00086E5D00085D5E00087B02002082
:103D64006C5E0008F002002004030020FC02002026
:103D7400DF02002002680F4B9A4219D10E4B1B78C8
:103D84000D2B0CD100210D4B0D4A1B78D15401226F
:103D94000C4B1A70012208490B48FEF73AB8002B65
:103DA400F8D006490A78501C087005498B54F1E78D
:103DB400704700BF0044004038050020F002002096
:103DC4007B020020DF0200200C0600200368074A63
:103DD400934204D1064A1368013313607047054ABD
:103DE400934202BF0122044B1A6070470010004046
:103DF4000403002000140040FC020020082802D123
:103E0400014800F0DBBC7047815E00087047000089
:103E14000E4B82B09A6942F001029A619A6902F0EB
:103E240001020092009ADA6942F08052DA61DB6999
:103E3400074A03F080530193019B536823F0E06326
:103E440043F00073536002B0704700BF001002409B
:103E5400000001407047FEE7FEE7FEE7FEE770471B
:103E640070477047FCF724BA0820FCF749BC0000EF
:103E74000148FCF7F7BC00BFE01000202020FCF74D
:103E84003FBC00000148FEF729B800BFCC05002064
:103E94000148FEF723B800BF0C0600200148FDF7D7
:103EA40073BD00BF3C0500200148FDF76DBD00BF98
:103EB400840500200120704708B500F0C7FB1623D5
:103EC40003604FF0FF3008BD08B500F0BFFB1623B8
:103ED4000360FEE770B50E4614460025A54201DBDB
:103EE400204670BDAFF3008070550135F6E7000041
:103EF40008B50A4B0246196809B9094919606946A7
:103F0400186802448A4206D900F0A0FB0C2303601F
:103F14004FF0FF3008BD1A60FCE700BF0803002023
:103F2400DC1500204FF0FF3070474FF400530020A1
:103F34004B60704701207047002070470F4B1A6890
:103F440042F001021A6059680D4A0A405A601A6820
:103F540022F0847222F480321A601A6822F48022D9
:103F64001A605A6822F4FE025A604FF41F029A60E3
:103F74004FF00062034B9A60704700BF001002408C
:103F84000000FFF800ED00E042F20F7313B50E4A93
:103F94000E480024C0E9002341F6FF03CDE90044A4
:103FA4008460C3608461FDF7DDFD08B1FFF72EFF77
:103FB40069460648CDE90044FDF700FE08B1FFF765
:103FC40025FF02B010BD00BF001000403C050020DA
:103FD40042F20F7313B50E4A0E480024C0E90023C1
:103FE40040F27F23CDE900448460C3608461FDF71F
:103FF400B9FD08B1FFF70AFF69460648CDE9004458
:10400400FDF7DCFD08B1FFF701FF02B010BD00BFF2
:10401400001400408405002007B50368134A934246
:104024000CD1134BDA6942F01002DA61DB6903F058
:1040340010030093009B03B05DF804FB0D4A934208
:10404400F9D10B4B3720DA6942F02002DA61002201
:10405400DB69114603F020030193019BFCF75EF931
:10406400372003B05DF804EBFCF78AB90010004078
:10407400001002400014004008B54FF4E1330A4830
:104084000A4AC0E9002300230C22C0E90233C0E934
:1040940005230361C361FDF739FE18B1BDE808408B
:1040A400FFF7B4BE08BD00BFCC05002000380140B6
:1040B40008B54FF4E1330A480A4AC0E90023002353
:1040C4000C22C0E90233C0E905230361C361FDF793
:1040D4001DFE18B1BDE80840FFF798BE08BD00BF3B
:1040E4000C06002000440040102210B5044688B09D
:1040F4000DEB0200002100F0D3FA2368274A934213
:1041040029D1274B4FF400719A69264842F4804222
:104114009A619A6902F480420092009A9A6942F084
:1041240004029A619B6903F004030193019B022337
:10413400CDE90413032304A90793FCF7E3F94FF42F
:10414400806304930023174804A9CDE90533FCF7E1
:10415400D9F908B010BD144A9342FAD1104B114852
:10416400DA6904A942F40032DA61DA6902F400324D
:104174000292029A9A6942F004029A619B690422AB
:1041840003F004030393039B0223CDE904230323D5
:104194000793FCF7B7F90823D3E700BF00380140C1
:1041A40000100240000801400044004008B500220D
:1041B4000E490F48FEF79EFE08B1FFF727FE0D4992
:1041C4000B48FEF7ACFE08B1FFF720FE0A49084889
:1041D400FEF74BFE08B1FFF719FE0548FEF7A6FEF1
:1041E40018B1BDE80840FFF711BE08BD4401002026
:1041F4004C060020080000203401002000207047F5
:104204000020704738B504460D4601460C48FEF7B9
:104214003BFE00220B49286813B2834207D2E05CBC
:1042240001320D2801D0C854F5E70022CA540122F6
:10423400054B03481A70FEF746FE002038BD00BF48
:104244004C060020160200201502002010B5064C72
:10425400002220460549FEF70FFE20460449FEF7DA
:1042640013FE002010BD00BF4C060020F80C0020F7
:104274001009002010B5094C0A46D4F8B832D3F816
:10428400143243B901462046FEF7F6FD2046BDE848
:104294001040FEF7FFBD012010BD00BF4C060020FA
:1042A40007B50E4B02689A4215D103F5DA33DA6981
:1042B400142042F40002DA610022DB69114603F49F
:1042C40000030193019BFCF729F8142003B05DF867
:1042D40004EBFCF755B803B05DF804FB005C004048
:1042E40000F52C71D0F8E802FEF737BE282303FB53
:1042F4000103D0F8E802D3F87C21FEF75BBE282343
:1043040003FB0103D0F8E802DA6BFEF78DBED0F8A8
:10431400E802FEF721BF836810B5022B044601D0E2
:10432400FFF774FDD4F8E8020121FEF7FFFED4F88C
:10433400E802BDE81040FEF7D2BE000010B5044606
:10434400D0F8E802FEF7F5FEA36923B1024A136927
:1043540043F00603136110BD00ED00E0D0F8E8025D
:10436400FEF7F0BE082310B51D4A04461D48C0E9F7
:104374000023022383600023C0F8E842C4F8C0028B
:10438400C0E906330362FCF7C7F908B1FFF73EFD45
:10439400002218231146D4F8C002FCF79BFF5823CF
:1043A40000228021D4F8C002FCF794FFC02300222D
:1043B4008121D4F8C002FCF78DFF4FF488730022EA
:1043C4000121D4F8C002FCF785FF4FF4807300226A
:1043D4008221D4F8C002FCF77DFF002010BD00BF8D
:1043E400005C0040E010002008B5D0F8C002FCF7E3
:1043F4000CFA032896BF024B0220185C08BD00BFCC
:10440400AA5E000810B51446D0F8C0021A46234626
:10441400FCF766FE032896BF014B0220185C10BD12
:10442400AA5E000808B5D0F8C002FCF78BFE03288A
:1044340096BF024B0220185C08BD00BFAA5E0008AC
:1044440008B5D0F8C002FCF7DFFE032896BF024B84
:104454000220185C08BD00BFAA5E000808B5D0F8A9
:10446400C002FCF705FF032896BF024B0220185C2C
:1044740008BD00BFAA5E0008282311F0800FD0F801
:10448400C0221BBF01F07F0101FB033103FB0121AB
:10449400891814BF887891F86A01704708B5D0F874
:1044A400C002FCF7CBF9032896BF024B0220185C2C
:1044B40008BD00BFAA5E000808B5D0F8C002FCF72A
:1044C40089FE032896BF024B0220185C08BD00BF7A
:1044D400AA5E000808B5D0F8C002FCF75CFE032809
:1044E40096BF024B0220185C08BD00BFAA5E0008FC
:1044F400D0F8C002FCF766BE004870470C030020E9
:1045040070477047122301480B80704760010020F8
:10451400042301480B80704774010020002370B508
:104524001E464D1C040FB0F1204F34BF30343734D5
:1045340001F8134005F813600133DCB2A2424FEADC
:104544000010EFD870BD00001A2310B50B80094B82
:10455400186808331B68C0180AD0074B08221C6867
:104564000649FFF7DBFF042220460549FFF7D6FF83
:10457400044810BDE8F7FF1FECF7FF1F7A01002085
:104584008A0100207801002010B5044C0A46044832
:104594002146FEF7F0FF204610BD00BFCC130020DB
:1045A400AE5E000810B5044C0A4604482146FEF7E6
:1045B400E2FF204610BD00BFCC130020C15E0008FE
:1045C40010B5044C0A4604482146FEF7D4FF2046A1
:1045D40010BD00BFCC130020D75E000810B5044CFA
:1045E4000A4604482146FEF7C6FF204610BD00BF18
:1045F400CC130020E25E0008002103E00B4B5B5863
:10460400435004310A480B4B42189A42F6D30A4AE3
:1046140002E0002342F8043B084B9A42F9D3FFF727
:104624008DFC00F019F8FFF7F9FA704748610008AB
:1046340000000020F8010020F8010020DC15002013
:10464400FEE70A22002100F0CBB90000014B1868F4
:10465400704700BF9401002070B500260C4D0D4C2E
:10466400641BA410A64209D101F042FB00260A4DA6
:104674000A4C641BA410A64205D170BD55F8043B36
:1046840098470136EEE755F8043B98470136F2E7C0
:10469400406100084061000840610008446100086E
:1046A40003460244934200D1704703F8011BF9E723
:1046B4000FB40A4B13B51C6824B1A36913B920467F
:1046C40000F090FB05AB2046049AA168019300F02A
:1046D400D1FE02B0BDE8104004B070479401002040
:1046E40070B50E46054618B183690BB900F07AFB24
:1046F400AB69AC6813B9284600F074FB2C4B9C42A0
:1047040020D16C68636EDB0705D4A389980502D4B5
:10471400A06D00F017FCA38919071DD52369DBB12F
:10472400013EA36816F8011F013BA36039BB002BAF
:1047340038DA22460A21284600F05CF9013011D00B
:104744000A2511E01B4B9C4201D1AC68DAE71A4BF5
:104754009C4208BFEC68D5E72146284600F09CF946
:104764000028DDD04FF0FF35636EDA0705D4A38946
:104774009B0502D4A06D00F0E6FB284670BD002B1B
:1047840004DAA2699A4206DC0A2904D023685A1C76
:1047940022601970C5E72246284600F02BF9013043
:1047A400BFD1DFE70A2523685A1C22601D70DBE7AE
:1047B400CC600008EC600008AC600008024B0146C5
:1047C4001868FFF78DBF00BF940100200EB46FF08E
:1047D400004100B59CB01DAB029006900791049176
:1047E4000848094953F8042B0591006802A901936C
:1047F40000F018FD0022029B1A701CB05DF804EB57
:1048040003B07047940100200802FFFF034611F82B
:10481400012B03F8012B002AF9D17047164B2DE91F
:10482400F0411F680546BC6D0E46ECB9502000F0FF
:10483400EFFB0246B86520B95721104B104800F031
:1048440099F9C0E90044C0E90244C0E90444C0E95C
:104854000A44C0E90C44C0E90E44C0E91044C0E96C
:10486400124484610477446231462846BA6D0123B8
:10487400BDE8F04100F006B894010020F45E0008A1
:104884000B5F0008F0B508B9106888B104460F46FC
:10489400204614F8015B17F8016B1EB965B9284668
:1048A400156005E0B542F6D1002BF0D11460037019
:1048B400F0BD1C460CE015B90E4614F8013B16F881
:1048C400015BAB42F7D1002BF3D0002304F8013C89
:1048D4001460EDE7012B2DE9F047864601D0242B27
:1048E40006D9FFF7B3FE162303600020BDE8F08766
:1048F4008C463A4E60461CF8014BA55D15F0080540
:10490400F8D12D2C33D14FF001089CF8004000F170
:10491400020C002B5DD0102B0CD1302C0AD19CF84A
:10492400000000F0DF0058284ED110239CF801400D
:104934000CF1020C002508F10047013FB7FBF3F925
:10494400284603FB197AA4F13006092E18D83446F8
:10495400A34224DD002D1FDB81451DD301D1A245D7
:104964001ADB012500FB03401CF8014BEBE72B2C61
:1049740008BF9CF80040A84608BF00F1020CC8E735
:10498400A4F14106192E01D8373CE1E7A4F16106F0
:10499400192E04D8573CDBE74FF0FF35E4E7002D30
:1049A40008DA22233846CEF80030002A9ED00CF1D3
:1049B400FF3107E0B8F1000F00D04042002A95D043
:1049C400002DF4D1116091E73024002BB2D10823DB
:1049D400B0E7302CA3D00A23ACE700BFA95F0008DE
:1049E40013460A46014602480068FFF773BF00BF3A
:1049F40094010020F8B50E461446054618B18369A3
:104A04000BB900F0EFF9214B9C422BD16C68A369E0
:104A1400A360A3891A072FD523696BB32369206880
:104A2400F6B2C01A63693746834204DC214628463D
:104A340000F044F930BBA3680130013BA360236854
:104A44005A1C22601E706369834204D0A389DB0769
:104A540006D50A2E04D12146284600F02FF988B93C
:104A64003846F8BD0A4B9C4201D1AC68CFE7094BEC
:104A74009C4208BFEC68CAE72146284600F00CF8BF
:104A84000028CBD04FF0FF37EAE700BFCC60000826
:104A9400EC600008AC600008324B70B51D68064637
:104AA4000C4625B1AB6913B9284600F09BF92E4B8F
:104AB4009C420FD16C68A389B4F90C2019072CD43B
:104AC400DD0611D40923336042F040034FF0FF3078
:104AD400A3813EE0254B9C4201D1AC68EBE7244B1B
:104AE4009C4208BFEC68E6E7580712D5616B41B1F8
:104AF40004F14403994202D0304600F091FA0023B5
:104B04006363A38923F02403A381002363602369DF
:104B14002360A38943F00803A38123694BB9A389C4
:104B240003F42073B3F5007F03D02146304600F030
:104B34002FFAA089B4F90C2010F001030AD0002345
:104B4400A36063695B42A361236943B910F08000E9
:104B5400BAD170BD810758BF6369A360F4E7002030
:104B6400F7E700BF94010020CC600008EC60000867
:104B7400AC6000081FB514461A46094B05461B686D
:104B8400D8684CB1074BCDE9013400912B46064956
:104B940000F0A6F900F09AFF044B1C46F3E700BFAF
:104BA400940100206C5F0008795F00085C5E0008D7
:104BB4008A892DE9F041054610070C4658D44B6804
:104BC400002B05DC0B6C002B02DC0020BDE8F0811F
:104BD400E66A002EF9D0002312F480522F682B606D
:104BE40032D0606DA3895A0705D56368C01A636B18
:104BF4000BB1236CC01A00230246E66A2846216AD8
:104C0400B047431CA38906D129681D292CD82A4AF8
:104C1400CA40D60728D5002262602269D9042260DE
:104C240004D5421C01D12B6803B96065616B2F6008
:104C34000029CAD004F14403994202D0284600F066
:104C4400EFF900206063C1E7216A01232846B047D9
:104C5400411CC7D12B68002BC4D01D2B01D0162BAF
:104C640001D12F60B1E7A38943F04003A381ADE7ED
:104C74000F69002FA9D0930718BF00230E6808BF3F
:104C84004B69A6EB07080F608B60B8F1000F9CDD41
:104C940043463A462846216AA66AB047002806DCFD
:104CA400A3894FF0FF3043F04003A3818EE707440C
:104CB400A8EB0008E9E700BF0100402038B50B6904
:104CC40005460C4613B90025284638BD18B183693A
:104CD4000BB900F087F8144B9C421BD16C68B4F9F3
:104CE4000C30002BEFD0626ED00704D4990502D4A7
:104CF400A06D00F027F928462146FFF759FF636E9F
:104D04000546DA07E0D4A3899B05DDD4A06D00F045
:104D14001AF9D9E7054B9C4201D1AC68DFE7044B93
:104D24009C4208BFEC68DAE7CC600008EC6000083D
:104D3400AC600008002310B50446C0E90033C0E9A4
:104D44000433836081814366C281836119460822EA
:104D54005C30FFF7A5FC054B24626362044BA3623D
:104D6400044BE362044B236310BD00BF255A0008C3
:104D7400475A00087F5A0008A35A0008014900F066
:104D8400C1B800BFC14C000870B568254A1E554320
:104D94000E4605F1740100F08FF9044640B100217C
:104DA400C0E900160C30A06005F16802FFF778FC3A
:104DB400204670BD014800F0C5B800BFD4150020DE
:104DC400014800F0C0B800BFD4150020014800F02D
:104DD400B9B800BFCF150020014800F0B4B800BF37
:104DE400CF15002010B50446FFF7F0FFA3691BB1EF
:104DF400BDE81040FFF7F0BFC4E912332365134B3D
:104E0400134A1B68A262A34208BF0123204608BFBD
:104E1400A36100F01FF86060204600F01BF8A0605A
:104E2400204600F017F800220421E0606068FFF7D4
:104E340081FF01220921A068FFF77CFF02221221D1
:104E4400E068FFF777FF0123A361D1E7F05E000874
:104E5400814D0008F8B50746FFF7ACFF1E4B1E68EE
:104E6400B36913B93046FFF7BDFF4836D6E90134BC
:104E7400013B03D533680BB33668F7E7B4F90C503C
:104E8400D5B9164B04F15800E360656600F059F893
:104E9400FFF796FF08222946C4E90155C4E90455E1
:104EA4002560A56104F15C00FFF7FAFBC4E90D5528
:104EB400C4E912552046F8BD6834D9E704213846C0
:104EC400FFF762FF044630600028D5D1FFF778FF72
:104ED4000C233B60EEE700BFF05E00080100FFFF1B
:104EE4000EB403B5014603AB054853F8042B006820
:104EF400019300F0BFFA02B05DF804EB03B0704711
:104F0400940100202DE9F84306468846002700F165
:104F14004804D4E90195B9F1010905D52468002CA8
:104F2400F7D13846BDE8F883AB89012B07D9B5F929
:104F34000E30013303D029463046C0470743683555
:104F4400E9E770477047704770B50E46B1F90E1027
:104F5400144600291D4696B007DA00232B60B38956
:104F64001A0610D44FF480630EE06A4600F0C6FDC2
:104F74000028F2DB019A02F47042A2F500535A426F
:104F84005A412A60EEE740230020236016B070BD2A
:104F94008B8973B59D0706460C4607D504F1470374
:104FA400236023610123636102B070BD6A4601ABD3
:104FB400FFF7CAFF00990546304600F07DF848B96E
:104FC400B4F90C309A05EFD423F0030343F0020341
:104FD400A381E3E70D4BB362A389206043F0800310
:104FE400A381009B20616361019B5BB13046B4F9EE
:104FF4000E1000F095FD28B1A38923F0030343F0BC
:105004000103A381A0890543A581CDE7814D000853
:10501400024B0146186800F04FB800BF940100200D
:1050240038B50546002943D051F8043C0C1F002B29
:10503400B8BFE41800F0CCFD1E4A1368104633B91B
:10504400636014602846BDE8384000F0C7BDA34241
:105054000AD921686218934201BF1A685B68521822
:10506400226063600460EDE71A465B680BB1A342FB
:10507400FAD911685018A0420BD120680144501885
:1050840083421160DED118685B680144116053608B
:10509400D8E702D90C232B60D4E7206821188B426F
:1050A40001BF19685B680918216063605460C9E72F
:1050B40038BD00BF2C050020F8B5CD1C25F0030534
:1050C40008350C2D38BF0C25002D064601DBA942FE
:1050D40003D90C2333600020F8BD00F079FD214989
:1050E4000A6814469CB9204F3B6823B921463046D0
:1050F40000F086FC38602946304600F081FC431CF1
:1051040023D10C233046336000F068FDE3E72368C5
:105114005B1B17D40B2B03D923601C44256004E0CC
:105124006368A2420CBF0B605360304600F056FD2A
:1051340004F10B00231D20F00700C21ACCD01B1A67
:10514400A350C9E722466468CCE7C41C24F00304D6
:10515400A042E3D0211A304600F052FC0130DDD1E8
:10516400CFE700BF2C050020300500202DE9F047D3
:105174008E6882469E420C4690461F4638D88A89DD
:1051840012F4906F32D0256809690133A5EB010947
:1051940065694B4405EB450505EBD5756D109D42DE
:1051A40038BF1D46530531D52946FFF785FF06460E
:1051B40050B90C234FF0FF30CAF80030A38943F0F4
:1051C4004003A381BDE8F0874A46216900F0D8FC7A
:1051D400A38923F4906343F08003A38126614E44A2
:1051E40026603E466561A5EB0905A560BE4200D96F
:1051F4003E4632464146206800F0D0FCA36822684F
:105204009B1B32440020A3602260DBE72A4600F0A7
:10521400EBFC06460028E1D150462169FFF700FF68
:10522400C7E700002DE9F04F98468B8907461B0617
:105234000D4614469DB00ED50B6963B94021FFF7A6
:105244003BFF2860286120B90C233B604FF0FF30FE
:10525400D1E040236B610023099320238DF829308A
:1052640030234FF00109CDF80C80DFF8A4818DF8CC
:105274002A3023469A4613F8012B0AB1252AF9D17C
:10528400BAEB040B0BD05B46224629463846FFF79F
:105294006DFF013000F0AA80099A5A4409929AF8E5
:1052A4000030002B00F0A28000234FF0FF32CDE944
:1052B40005230AF1010A049307938DF853301A93D6
:1052C4005446052214F8011B514800F04BFC049A83
:1052D400D8B9D00644BF20238DF85330110744BFFA
:1052E4002B238DF853309AF800302A2B15D05446CE
:1052F40000204FF00A0C079A214611F8013B303B7D
:10530400092B4ED9B0B1079214E0A0EB080309FAB7
:1053140003F31343A2460493D2E7039B191D1B68AE
:105324000391002BBBBF5B4242F002020793079339
:10533400B8BF049223782E2B0CD163782A2B35D155
:10534400039B02341A1D1B680392002BB8BF4FF055
:10535400FF330593DFF8C8A003225046217800F0FC
:1053640001FC40B14023A0EB0A0003FA00F0049BC7
:1053740001340343049314F8011B062225488DF8D5
:10538400281000F0EFFB002838D0234B1BBB039BF5
:10539400073323F0070308330393099B334409932A
:1053A40067E70C4601200CFB0232A5E700234FF00F
:1053B4000A0C194601340593204610F8012B303AA3
:1053C400092A03D9002BC5D00591C3E7044601235C
:1053D4000CFB0121F0E703AB00932A4638460F4B40
:1053E40004A9AFF30080421C0646D6D1AB895B0604
:1053F4003FF52CAF09981DB0BDE8F08F03AB0093C7
:105404002A463846054B04A900F0D4F9EBE700BF5F
:105414000C610008166100080000000071510008CA
:1054240012610008936810B4013B002B936007DA03
:105434009469A34201DB0A2902D110BCFFF7DABA4E
:105444001368581C10601970084610BC7047F8B5F2
:1054540006460F461446D518AC4201D1002007E099
:105464003A46304614F8011BFFF7DCFF431CF3D126
:10547400F8BD00002DE9F04F0D4614469846064647
:105484009DB018B183690BB9FFF7ACFC894B9D4201
:105494001BD175686B6ED90705D4AB899A0502D404
:1054A400A86DFFF74FFDAB891B0701D52B69EBB93D
:1054B40029463046FFF7F0FAC0B16B6EDC070ED513
:1054C4004FF0FF301DB0BDE8F08F7B4B9D4201D102
:1054D400B568DFE7794B9D4208BFF568DAE7AB8929
:1054E4009805EDD4A86DFFF72EFDE9E70023099395
:1054F40020238DF8293030234FF00109CDF80C809A
:10550400DFF8BC818DF82A3023469A4613F8012B24
:105514000AB1252AF9D1BAEB040B0BD05B4622461B
:1055240029463046FFF793FF013000F0AA80099A1C
:105534005A4409929AF80030002B00F0A28000230C
:105544004FF0FF32CDE905230AF1010A04930793D2
:105554008DF853301A935446052214F8011B584809
:1055640000F000FB049AD8B9D10644BF20238DF87B
:105574005330130744BF2B238DF853309AF800306F
:105584002A2B15D0544600204FF00A0C079A2146C6
:1055940011F8013B303B092B4ED9B0B1079214E00E
:1055A400A0EB080309FA03F31343A2460493D2E7DA
:1055B400039B191D1B680391002BBBBF5B4242F088
:1055C400020207930793B8BF049223782E2B0CD1C1
:1055D40063782A2B35D1039B02341A1D1B6803926E
:1055E400002BB8BF4FF0FF330593DFF8E4A003228C
:1055F4005046217800F0B6FA40B14023A0EB0A00EF
:1056040003FA00F0049B01340343049314F8011BD0
:1056140006222C488DF8281000F0A4FA00283FD068
:10562400294B1BBB039B073323F007030833039366
:10563400099B3B44099367E70C4601200CFB0232AB
:10564400A5E700234FF00A0C1946013405932046C0
:1056540010F8012B303A092A03D9002BC5D0059143
:10566400C3E7044601230CFB0121F0E703AB0093DD
:105674002A463046154B04A9AFF300800746781C30
:10568400D6D16B6ED90705D4AB899A0502D4A86D1F
:10569400FFF759FCAB895B063FF512AF099811E798
:1056A40003AB00932A463046084B04A900F082F865
:1056B400E4E700BFCC600008EC600008AC600008C0
:1056C4000C61000816610008000000005354000833
:1056D400126100082DE9F047164699468A680B695D
:1056E40007469342B8BF1346336091F843200C46F3
:1056F400DDF820800AB1013333602368990642BF84
:10570400336802333360256815F0060506D104F1C9
:10571400190AE36832689B1AAB4228DC94F84320E8
:10572400131E226818BF012392062DD44946384619
:1057340004F14302C047013020D02368E56803F038
:105744000603042B18BF002532684FF00006A36837
:1057540008BFAD1A226908BF25EAE5759342C4BFA4
:105764009B1AED181A34B5421AD1002008E001231F
:10577400524649463846C047013003D14FF0FF3006
:10578400BDE8F0870135C4E73020E11881F8430013
:105794005A1C94F845102244023382F84310C5E79A
:1057A4000123224649463846C0470130E6D0013637
:1057B400D9E700002DE9FF470C46277E9146782F54
:1057C40080469A460C9904F1430207D8622F0AD8FE
:1057D400002F00F0D980582F00F0A48004F1420675
:1057E40084F842703AE0A7F16303152BF6D801A0C0
:1057F40050F823F05158000865580008E157000894
:10580400E1570008E1570008E1570008655800080F
:10581400E1570008E1570008E1570008E157000884
:10582400735900089558000855590008E1570008B5
:10583400E157000895590008E157000895580008F9
:10584400E1570008E15700085D5900080B6804F1AE
:1058540042061A1D1B680A6084F842300123A4E042
:10586400256808682E0600F104030AD505680B6054
:10587400002D03DA2D236D4284F843300A235E4859
:1058840019E015F0400F05680B6018BF2DB2EFE763
:105894000B682568181D0860280601D51D6802E0FC
:1058A4006906FBD51D886F2F0CBF08230A235248B5
:1058B400002184F843106668002EA8BF2168A66002
:1058C400A4BF21F0040121600DB9002E4DD016466D
:1058D400B5FBF3F103FB1157C75D06F8017D2F46B5
:1058E400BB420D46F4D9082B0BD12368DF0708D53A
:1058F400236961689942DEBF302306F8013C06F152
:10590400FF36921B22614B4621464046CDF800A04B
:1059140003AAFFF7DFFE01304CD14FF0FF3004B093
:10592400BDE8F087344884F845700E68236856F85B
:10593400045B1F060E6014D5D90744BF43F020034F
:1059440023601DB9236823F0200323601023AFE7ED
:10595400236843F0200323607823284884F84530E3
:10596400E3E75E0648BFADB2E6E71646BBE70B6861
:1059740026681D1D60690D6035061B6801D5186019
:1059840002E07106FBD51880002316462361BAE7AE
:105994000B681A1D0A601E6800213046626800F018
:1059A400E1F808B1801B606063682361002384F818
:1059B4004330A8E73246494640462369D047013080
:1059C400ABD023689B0713D4E068039B9842B8BF0D
:1059D4001846A4E70123324649464046D0470130E1
:1059E4009BD00135E36803995B1AAB42F2DCEBE729
:1059F400002504F11906F5E71D6100082E61000871
:105A040038B50023054D044608462B60FEF770FAAE
:105A1400431C02D12B6803B1236038BDD815002084
:105A240010B50C46B1F90E1000F004F90028ABBF14
:105A3400636DA3891B1823F48053ACBF6365A381F2
:105A440010BD2DE9F0411F468B890546DB050C4648
:105A5400164605D502230022B1F90E1000F070F8A5
:105A6400A389324623F48053A38128463B46B4F9E4
:105A74000E10BDE8F04100F017B810B50C46B1F9AE
:105A84000E1000F05DF8431CA38915BF606523F474
:105A9400805343F48053A38118BFA38110BDB1F98F
:105AA4000E1000F01BB8000038B504460846114635
:105AB4000022054D2A601A46FDF76CFE431C02D1F4
:105AC4002B6803B1236038BDD8150020062008B523
